Component: ARM Compiler 5.05 update 1 (build 106) Tool: armlink [4d0efa]

==============================================================================

Section Cross References

    main.o(i.main) refers to misc.o(i.NVIC_PriorityGroupConfig) for NVIC_PriorityGroupConfig
    main.o(i.main) refers to delay.o(i.delay_init) for delay_init
    main.o(i.main) refers to usart.o(i.uart_init) for uart_init
    main.o(i.main) refers to led.o(i.LED_Init) for LED_Init
    main.o(i.main) refers to shell_port.o(i.User_Shell_Init) for User_Shell_Init
    main.o(i.main) refers to shell.o(i.shellTask) for shellTask
    main.o(i.main) refers to shell_port.o(.bss) for shell
    system_stm32f4xx.o(i.SystemCoreClockUpdate) refers to system_stm32f4xx.o(.data) for SystemCoreClock
    system_stm32f4xx.o(i.SystemInit) refers to system_stm32f4xx.o(i.SetSysClock) for SetSysClock
    led.o(i.LED_Init) refers to stm32f4xx_rcc.o(i.RCC_AHB1PeriphClockCmd) for RCC_AHB1PeriphClockCmd
    led.o(i.LED_Init) refers to stm32f4xx_gpio.o(i.GPIO_Init) for GPIO_Init
    led.o(i.LED_Init) refers to stm32f4xx_gpio.o(i.GPIO_SetBits) for GPIO_SetBits
    beep.o(i.BEEP_Init) refers to stm32f4xx_rcc.o(i.RCC_AHB1PeriphClockCmd) for RCC_AHB1PeriphClockCmd
    beep.o(i.BEEP_Init) refers to stm32f4xx_gpio.o(i.GPIO_Init) for GPIO_Init
    beep.o(i.BEEP_Init) refers to stm32f4xx_gpio.o(i.GPIO_ResetBits) for GPIO_ResetBits
    key.o(i.KEY_Init) refers to stm32f4xx_rcc.o(i.RCC_AHB1PeriphClockCmd) for RCC_AHB1PeriphClockCmd
    key.o(i.KEY_Init) refers to stm32f4xx_gpio.o(i.GPIO_Init) for GPIO_Init
    key.o(i.KEY_Scan) refers to stm32f4xx_gpio.o(i.GPIO_ReadInputDataBit) for GPIO_ReadInputDataBit
==============================================================================

Removing Unused input sections from the image.

    Removing main.o(.rev16_text), (4 bytes).
    Removing main.o(.revsh_text), (4 bytes).
    Removing stm32f4xx_it.o(.rev16_text), (4 bytes).
    Removing stm32f4xx_it.o(.revsh_text), (4 bytes).
    Removing system_stm32f4xx.o(.rev16_text), (4 bytes).
    Removing system_stm32f4xx.o(.revsh_text), (4 bytes).
    Removing system_stm32f4xx.o(i.SystemCoreClockUpdate), (192 bytes).
    Removing system_stm32f4xx.o(.data), (20 bytes).
    Removing led.o(.rev16_text), (4 bytes).
    Removing led.o(.revsh_text), (4 bytes).
    Removing beep.o(.rev16_text), (4 bytes).
    Removing beep.o(.revsh_text), (4 bytes).
    Removing beep.o(i.BEEP_Init), (64 bytes).
    Removing key.o(.rev16_text), (4 bytes).
    Removing key.o(.revsh_text), (4 bytes).
    Removing key.o(i.KEY_Init), (68 bytes).
    Removing key.o(i.KEY_Scan), (200 bytes).
    Removing key.o(.data), (1 bytes).
==============================================================================

Image Symbol Table

    Local Symbols

    Symbol Name                              Value     Ov Type        Size  Object(Section)

    ../clib/angel/boardlib.s                 0x00000000   Number         0  boardinit1.o ABSOLUTE
    ../clib/angel/boardlib.s                 0x00000000   Number         0  boardshut.o ABSOLUTE
    ../clib/angel/boardlib.s                 0x00000000   Number         0  boardinit2.o ABSOLUTE
    ../clib/angel/boardlib.s                 0x00000000   Number         0  boardinit3.o ABSOLUTE
    ../clib/angel/handlers.s                 0x00000000   Number         0  __scatter_zi.o ABSOLUTE
    ../clib/angel/handlers.s                 0x00000000   Number         0  __scatter_copy.o ABSOLUTE
    ../clib/angel/kernel.s                   0x00000000   Number         0  rtexit.o ABSOLUTE
    ../clib/angel/kernel.s                   0x00000000   Number         0  __rtentry.o ABSOLUTE
    ../clib/angel/kernel.s                   0x00000000   Number         0  __rtentry2.o ABSOLUTE
    ../clib/angel/kernel.s                   0x00000000   Number         0  __rtentry4.o ABSOLUTE
    ../clib/angel/kernel.s                   0x00000000   Number         0  rtexit2.o ABSOLUTE
    ../clib/angel/rt.s                       0x00000000   Number         0  rt_raise.o ABSOLUTE
    ../clib/angel/rt.s                       0x00000000   Number         0  rt_locale_intlibspace.o ABSOLUTE
    ../clib/angel/rt.s                       0x00000000   Number         0  rt_ctype_table.o ABSOLUTE
    ../clib/angel/rt.s                       0x00000000   Number         0  rt_locale.o ABSOLUTE
    ../clib/angel/scatter.s                  0x00000000   Number         0  __scatter.o ABSOLUTE
    ../clib/angel/startup.s                  0x00000000   Number         0  __main.o ABSOLUTE
    ../clib/angel/sys.s                      0x00000000   Number         0  use_no_semi.o ABSOLUTE
    ../clib/angel/sys.s                      0x00000000   Number         0  use_no_semi_2.o ABSOLUTE
    ../clib/angel/sys.s                      0x00000000   Number         0  libspace.o ABSOLUTE
    ../clib/angel/sys.s                      0x00000000   Number         0  sys_stackheap_outer.o ABSOLUTE
    ../clib/angel/sys.s                      0x00000000   Number         0  indicate_semi.o ABSOLUTE
    ../clib/angel/sysapp.c                   0x00000000   Number         0  sys_wrch.o ABSOLUTE
    ../clib/angel/sysapp.c                   0x00000000   Number         0  sys_command.o ABSOLUTE
    ../clib/armsys.c                         0x00000000   Number         0  no_argv.o ABSOLUTE
    ../clib/armsys.c                         0x00000000   Number         0  _get_argv_nomalloc.o ABSOLUTE
    ../clib/armsys.c                         0x00000000   Number         0  argv_veneer.o ABSOLUTE
    ../clib/armsys.c                         0x00000000   Number         0  argv_veneer.o ABSOLUTE
    ../clib/bigflt.c                         0x00000000   Number         0  bigflt0.o ABSOLUTE
    ../clib/btod.s                           0x00000000   Number         0  btod.o ABSOLUTE
    ../clib/heapalloc.c                      0x00000000   Number         0  hrguard.o ABSOLUTE
    ../clib/heapaux.c                        0x00000000   Number         0  heapauxi.o ABSOLUTE
    ../clib/libinit.s                        0x00000000   Number         0  libinit2.o ABSOLUTE
    ../clib/libinit.s                        0x00000000   Number         0  libshutdown2.o ABSOLUTE
    ../clib/libinit.s                        0x00000000   Number         0  libinit.o ABSOLUTE
    ../clib/libinit.s                        0x00000000   Number         0  libshutdown.o ABSOLUTE
    ../clib/locale.c                         0x00000000   Number         0  _wcrtomb.o ABSOLUTE
    ../clib/locale.s                         0x00000000   Number         0  lc_ctype_c.o ABSOLUTE
    ../clib/locale.s                         0x00000000   Number         0  lc_numeric_c.o ABSOLUTE
    ../clib/longlong.s                       0x00000000   Number         0  lludiv10.o ABSOLUTE
    ../clib/memcpset.s                       0x00000000   Number         0  rt_memclr_w.o ABSOLUTE
    ../clib/memcpset.s                       0x00000000   Number         0  strcmpv7m.o ABSOLUTE
    ../clib/misc.s                           0x00000000   Number         0  printf_stubs.o ABSOLUTE
    ../clib/printf.c                         0x00000000   Number         0  _printf_char.o ABSOLUTE
    ../clib/printf.c                         0x00000000   Number         0  __printf_flags_ss_wp.o ABSOLUTE
    ../clib/printf.c                         0x00000000   Number         0  _sputc.o ABSOLUTE
    ../clib/printf.c                         0x00000000   Number         0  _printf_char_common.o ABSOLUTE
    ../clib/printf.c                         0x00000000   Number         0  __printf_ss_wp.o ABSOLUTE
    ../clib/printf.c                         0x00000000   Number         0  __printf_flags_wp.o ABSOLUTE
    ../clib/printf.c                         0x00000000   Number         0  __printf_wp.o ABSOLUTE
    ../clib/printf.c                         0x00000000   Number         0  __printf_flags_ss.o ABSOLUTE
    ../clib/printf.c                         0x00000000   Number         0  __printf_ss.o ABSOLUTE
    ../clib/printf.c                         0x00000000   Number         0  __printf_flags.o ABSOLUTE
    ../clib/printf.c                         0x00000000   Number         0  _printf_dec.o ABSOLUTE
    ../clib/printf.c                         0x00000000   Number         0  _printf_str.o ABSOLUTE
    ../clib/printf.c                         0x00000000   Number         0  __printf.o ABSOLUTE
    ../clib/printf.c                         0x00000000   Number         0  _printf_charcount.o ABSOLUTE
    ../clib/printf.c                         0x00000000   Number         0  _printf_intcommon.o ABSOLUTE
    ../clib/printf.c                         0x00000000   Number         0  _printf_truncate.o ABSOLUTE
    ../clib/printf.c                         0x00000000   Number         0  _printf_pad.o ABSOLUTE
    ../clib/printf.c                         0x00000000   Number         0  noretval__2printf.o ABSOLUTE
    ../clib/printf.c                         0x00000000   Number         0  __2printf.o ABSOLUTE
    ../clib/printf.c                         0x00000000   Number         0  vsnprintf.o ABSOLUTE
    ../clib/printf.c                         0x00000000   Number         0  _printf_fp_dec.o ABSOLUTE
    ../clib/printf.c                         0x00000000   Number         0  _printf_fp_hex.o ABSOLUTE
    ../clib/printf.c                         0x00000000   Number         0  __printf_nopercent.o ABSOLUTE
    ../clib/printf.c                         0x00000000   Number         0  _printf_wchar.o ABSOLUTE
    ../clib/printf.c                         0x00000000   Number         0  _printf_wctomb.o ABSOLUTE
    ../clib/printf.c                         0x00000000   Number         0  _printf_fp_infnan.o ABSOLUTE
    ../clib/printf.c                         0x00000000   Number         0  _snputc.o ABSOLUTE
    ../clib/printf.c                         0x00000000   Number         0  _printf_hex_int_ll_ptr.o ABSOLUTE
    ../clib/printf.c                         0x00000000   Number         0  _printf_hex_ll_ptr.o ABSOLUTE
    ../clib/printf.c                         0x00000000   Number         0  _printf_hex_int_ptr.o ABSOLUTE
    ../clib/printf.c                         0x00000000   Number         0  _printf_hex_ptr.o ABSOLUTE
    ../clib/printf.c                         0x00000000   Number         0  _printf_hex_int_ll.o ABSOLUTE
    ../clib/printf.c                         0x00000000   Number         0  _printf_hex_int.o ABSOLUTE
    ../clib/printf.c                         0x00000000   Number         0  _printf_hex_ll.o ABSOLUTE
    ../clib/printf.c                         0x00000000   Number         0  _printf_oct_int_ll.o ABSOLUTE
    ../clib/printf.c                         0x00000000   Number         0  _printf_oct_int.o ABSOLUTE
    ../clib/printf.c                         0x00000000   Number         0  _printf_oct_ll.o ABSOLUTE
    ../clib/printf.c                         0x00000000   Number         0  _printf_longlong_dec.o ABSOLUTE
    ../clib/printf.c                         0x00000000   Number         0  _printf_char_file.o ABSOLUTE
    ../clib/printf_percent.s                 0x00000000   Number         0  _printf_f.o ABSOLUTE
    ../clib/printf_percent.s                 0x00000000   Number         0  _printf_e.o ABSOLUTE
    ../clib/printf_percent.s                 0x00000000   Number         0  _printf_g.o ABSOLUTE
    ../clib/printf_percent.s                 0x00000000   Number         0  _printf_a.o ABSOLUTE
    ../clib/printf_percent.s                 0x00000000   Number         0  _printf_percent_end.o ABSOLUTE
    ../clib/printf_percent.s                 0x00000000   Number         0  _printf_lli.o ABSOLUTE
    ../clib/printf_percent.s                 0x00000000   Number         0  _printf_lld.o ABSOLUTE
    ../clib/printf_percent.s                 0x00000000   Number         0  _printf_llu.o ABSOLUTE
    ../clib/printf_percent.s                 0x00000000   Number         0  _printf_percent.o ABSOLUTE
    ../clib/printf_percent.s                 0x00000000   Number         0  _printf_d.o ABSOLUTE
    ../clib/printf_percent.s                 0x00000000   Number         0  _printf_x.o ABSOLUTE
    ../clib/printf_percent.s                 0x00000000   Number         0  _printf_l.o ABSOLUTE
    ../clib/printf_percent.s                 0x00000000   Number         0  _printf_ls.o ABSOLUTE
    ../clib/printf_percent.s                 0x00000000   Number         0  _printf_llx.o ABSOLUTE
    ../clib/printf_percent.s                 0x00000000   Number         0  _printf_llo.o ABSOLUTE
    ../clib/printf_percent.s                 0x00000000   Number         0  _printf_u.o ABSOLUTE
    ../clib/printf_percent.s                 0x00000000   Number         0  _printf_i.o ABSOLUTE
    ../clib/printf_percent.s                 0x00000000   Number         0  _printf_o.o ABSOLUTE
    ../clib/printf_percent.s                 0x00000000   Number         0  _printf_p.o ABSOLUTE
    ../clib/printf_percent.s                 0x00000000   Number         0  _printf_s.o ABSOLUTE
    ../clib/printf_percent.s                 0x00000000   Number         0  _printf_n.o ABSOLUTE
    ../clib/printf_percent.s                 0x00000000   Number         0  _printf_c.o ABSOLUTE
    ../clib/printf_percent.s                 0x00000000   Number         0  _printf_lc.o ABSOLUTE
    ../clib/printf_percent.s                 0x00000000   Number         0  _printf_ll.o ABSOLUTE
    ../clib/signal.c                         0x00000000   Number         0  defsig_rtred_inner.o ABSOLUTE
    ../clib/signal.c                         0x00000000   Number         0  defsig_rtmem_formal.o ABSOLUTE
    ../clib/signal.c                         0x00000000   Number         0  defsig_exit.o ABSOLUTE
    ../clib/signal.c                         0x00000000   Number         0  defsig_rtmem_inner.o ABSOLUTE
    ../clib/signal.c                         0x00000000   Number         0  defsig_general.o ABSOLUTE
    ../clib/signal.c                         0x00000000   Number         0  defsig_segv_inner.o ABSOLUTE
    ../clib/signal.c                         0x00000000   Number         0  defsig_abrt_inner.o ABSOLUTE
    ../clib/signal.c                         0x00000000   Number         0  defsig_fpe_inner.o ABSOLUTE
    ../clib/signal.c                         0x00000000   Number         0  defsig_stak_inner.o ABSOLUTE
    ../clib/signal.c                         0x00000000   Number         0  __raise.o ABSOLUTE
    ../clib/signal.c                         0x00000000   Number         0  defsig_rtmem_outer.o ABSOLUTE
    ../clib/signal.c                         0x00000000   Number         0  defsig_pvfn_inner.o ABSOLUTE
    ../clib/signal.c                         0x00000000   Number         0  defsig_cppl_inner.o ABSOLUTE
    ../clib/signal.c                         0x00000000   Number         0  defsig_other.o ABSOLUTE
    ../clib/signal.s                         0x00000000   Number         0  defsig.o ABSOLUTE
    ../clib/stdio.c                          0x00000000   Number         0  ferror_locked.o ABSOLUTE
    ../clib/stdio.c                          0x00000000   Number         0  ferror.o ABSOLUTE
    ../clib/stdlib.c                         0x00000000   Number         0  exit.o ABSOLUTE
    ../clib/string.c                         0x00000000   Number         0  strncmp.o ABSOLUTE
    ../clib/string.c                         0x00000000   Number         0  strlen.o ABSOLUTE
    ../fplib/fpinit.s                        0x00000000   Number         0  fpinit.o ABSOLUTE
    ../fplib/istatus.s                       0x00000000   Number         0  istatus.o ABSOLUTE
    ../fplib/printf1.s                       0x00000000   Number         0  printf1.o ABSOLUTE
    ../fplib/printf2.s                       0x00000000   Number         0  printf2.o ABSOLUTE
    ../fplib/printf2a.s                      0x00000000   Number         0  printf2a.o ABSOLUTE
    ../fplib/printf2b.s                      0x00000000   Number         0  printf2b.o ABSOLUTE
    ../fplib/usenofp.s                       0x00000000   Number         0  usenofp.o ABSOLUTE
    ../mathlib/fpclassify.c                  0x00000000   Number         0  fpclassify.o ABSOLUTE
    ..\CORE\startup_stm32f40_41xxx.s         0x00000000   Number         0  startup_stm32f40_41xxx.o ABSOLUTE
    ..\FWLIB\src\misc.c                      0x00000000   Number         0  misc.o ABSOLUTE
    ..\FWLIB\src\stm32f4xx_gpio.c            0x00000000   Number         0  stm32f4xx_gpio.o ABSOLUTE
    ..\FWLIB\src\stm32f4xx_rcc.c             0x00000000   Number         0  stm32f4xx_rcc.o ABSOLUTE
    ..\FWLIB\src\stm32f4xx_syscfg.c          0x00000000   Number         0  stm32f4xx_syscfg.o ABSOLUTE
    ..\FWLIB\src\stm32f4xx_usart.c           0x00000000   Number         0  stm32f4xx_usart.o ABSOLUTE
    ..\HARDWARE\BEEP\beep.c                  0x00000000   Number         0  beep.o ABSOLUTE
    ..\HARDWARE\KEY\key.c                    0x00000000   Number         0  key.o ABSOLUTE
    ..\HARDWARE\LED\led.c                    0x00000000   Number         0  led.o ABSOLUTE
    ..\HARDWARE\shell\shell.c                0x00000000   Number         0  shell.o ABSOLUTE
    ..\HARDWARE\shell\shell_cmd_list.c       0x00000000   Number         0  shell_cmd_list.o ABSOLUTE
    ..\HARDWARE\shell\shell_ext.c            0x00000000   Number         0  shell_ext.o ABSOLUTE
    ..\HARDWARE\shell\shell_port.c           0x00000000   Number         0  shell_port.o ABSOLUTE
    ..\SYSTEM\delay\delay.c                  0x00000000   Number         0  delay.o ABSOLUTE
    ..\SYSTEM\sys\sys.c                      0x00000000   Number         0  sys.o ABSOLUTE
    ..\SYSTEM\usart\NPEC_fifo.c              0x00000000   Number         0  npec_fifo.o ABSOLUTE
    ..\SYSTEM\usart\usart.c                  0x00000000   Number         0  usart.o ABSOLUTE
    ..\\FWLIB\\src\\misc.c                   0x00000000   Number         0  misc.o ABSOLUTE
    ..\\FWLIB\\src\\stm32f4xx_gpio.c         0x00000000   Number         0  stm32f4xx_gpio.o ABSOLUTE
    ..\\FWLIB\\src\\stm32f4xx_rcc.c          0x00000000   Number         0  stm32f4xx_rcc.o ABSOLUTE
    ..\\FWLIB\\src\\stm32f4xx_syscfg.c       0x00000000   Number         0  stm32f4xx_syscfg.o ABSOLUTE
    ..\\FWLIB\\src\\stm32f4xx_usart.c        0x00000000   Number         0  stm32f4xx_usart.o ABSOLUTE
    ..\\HARDWARE\\BEEP\\beep.c               0x00000000   Number         0  beep.o ABSOLUTE
    ..\\HARDWARE\\KEY\\key.c                 0x00000000   Number         0  key.o ABSOLUTE
    ..\\HARDWARE\\LED\\led.c                 0x00000000   Number         0  led.o ABSOLUTE
    ..\\HARDWARE\\shell\\shell_port.c        0x00000000   Number         0  shell_port.o ABSOLUTE
    ..\\SYSTEM\\delay\\delay.c               0x00000000   Number         0  delay.o ABSOLUTE
    ..\\SYSTEM\\sys\\sys.c                   0x00000000   Number         0  sys.o ABSOLUTE
    ..\\SYSTEM\\usart\\NPEC_fifo.c           0x00000000   Number         0  npec_fifo.o ABSOLUTE
    ..\\SYSTEM\\usart\\usart.c               0x00000000   Number         0  usart.o ABSOLUTE
    dc.s                                     0x00000000   Number         0  dc.o ABSOLUTE
    main.c                                   0x00000000   Number         0  main.o ABSOLUTE
    main.c                                   0x00000000   Number         0  main.o ABSOLUTE
    stm32f4xx_it.c                           0x00000000   Number         0  stm32f4xx_it.o ABSOLUTE
    stm32f4xx_it.c                           0x00000000   Number         0  stm32f4xx_it.o ABSOLUTE
    system_stm32f4xx.c                       0x00000000   Number         0  system_stm32f4xx.o ABSOLUTE
    system_stm32f4xx.c                       0x00000000   Number         0  system_stm32f4xx.o ABSOLUTE
    RESET                                    0x08000000   Section      392  startup_stm32f40_41xxx.o(RESET)
    !!!main                                  0x08000188   Section        8  __main.o(!!!main)
    !!!scatter                               0x08000190   Section       52  __scatter.o(!!!scatter)
    !!handler_copy                           0x080001c4   Section       26  __scatter_copy.o(!!handler_copy)
    !!handler_zi                             0x080001e0   Section       28  __scatter_zi.o(!!handler_zi)
    .ARM.Collect$$_printf_percent$$00000000  0x080001fc   Section        0  _printf_percent.o(.ARM.Collect$$_printf_percent$$00000000)
    .ARM.Collect$$_printf_percent$$00000009  0x080001fc   Section        6  _printf_d.o(.ARM.Collect$$_printf_percent$$00000009)
    .ARM.Collect$$_printf_percent$$00000014  0x08000202   Section        6  _printf_s.o(.ARM.Collect$$_printf_percent$$00000014)
    .ARM.Collect$$_printf_percent$$00000017  0x08000208   Section        4  _printf_percent_end.o(.ARM.Collect$$_printf_percent$$00000017)
    .ARM.Collect$$libinit$$00000000          0x0800020c   Section        2  libinit.o(.ARM.Collect$$libinit$$00000000)
    .ARM.Collect$$libinit$$00000001          0x0800020e   Section        4  libinit2.o(.ARM.Collect$$libinit$$00000001)
    .ARM.Collect$$libinit$$00000004          0x08000212   Section        0  libinit2.o(.ARM.Collect$$libinit$$00000004)
    .ARM.Collect$$libinit$$0000000A          0x08000212   Section        0  libinit2.o(.ARM.Collect$$libinit$$0000000A)
    .ARM.Collect$$libinit$$0000000C          0x08000212   Section        0  libinit2.o(.ARM.Collect$$libinit$$0000000C)
    .ARM.Collect$$libinit$$0000000E          0x08000212   Section        0  libinit2.o(.ARM.Collect$$libinit$$0000000E)
    .ARM.Collect$$libinit$$00000011          0x08000212   Section        0  libinit2.o(.ARM.Collect$$libinit$$00000011)
    .ARM.Collect$$libinit$$00000013          0x08000212   Section        0  libinit2.o(.ARM.Collect$$libinit$$00000013)
    .ARM.Collect$$libinit$$00000015          0x08000212   Section        0  libinit2.o(.ARM.Collect$$libinit$$00000015)
    .ARM.Collect$$libinit$$00000017          0x08000212   Section        0  libinit2.o(.ARM.Collect$$libinit$$00000017)
    .ARM.Collect$$libinit$$00000019          0x08000212   Section        0  libinit2.o(.ARM.Collect$$libinit$$00000019)
    .ARM.Collect$$libinit$$0000001B          0x08000212   Section        0  libinit2.o(.ARM.Collect$$libinit$$0000001B)
    .ARM.Collect$$libinit$$0000001D          0x08000212   Section        0  libinit2.o(.ARM.Collect$$libinit$$0000001D)
    .ARM.Collect$$libinit$$0000001F          0x08000212   Section        0  libinit2.o(.ARM.Collect$$libinit$$0000001F)
    .ARM.Collect$$libinit$$00000021          0x08000212   Section        0  libinit2.o(.ARM.Collect$$libinit$$00000021)
    .ARM.Collect$$libinit$$00000023          0x08000212   Section        0  libinit2.o(.ARM.Collect$$libinit$$00000023)
    .ARM.Collect$$libinit$$00000025          0x08000212   Section        0  libinit2.o(.ARM.Collect$$libinit$$00000025)
    .ARM.Collect$$libinit$$0000002C          0x08000212   Section        0  libinit2.o(.ARM.Collect$$libinit$$0000002C)
    .ARM.Collect$$libinit$$0000002E          0x08000212   Section        0  libinit2.o(.ARM.Collect$$libinit$$0000002E)
    .ARM.Collect$$libinit$$00000030          0x08000212   Section        0  libinit2.o(.ARM.Collect$$libinit$$00000030)
    .ARM.Collect$$libinit$$00000032          0x08000212   Section        0  libinit2.o(.ARM.Collect$$libinit$$00000032)
    .ARM.Collect$$libinit$$00000033          0x08000212   Section        2  libinit2.o(.ARM.Collect$$libinit$$00000033)
    .ARM.Collect$$libshutdown$$00000000      0x08000214   Section        2  libshutdown.o(.ARM.Collect$$libshutdown$$00000000)
    .ARM.Collect$$libshutdown$$00000003      0x08000216   Section        0  libshutdown2.o(.ARM.Collect$$libshutdown$$00000003)
    .ARM.Collect$$libshutdown$$00000006      0x08000216   Section        0  libshutdown2.o(.ARM.Collect$$libshutdown$$00000006)
    .ARM.Collect$$libshutdown$$00000009      0x08000216   Section        0  libshutdown2.o(.ARM.Collect$$libshutdown$$00000009)
    .ARM.Collect$$libshutdown$$0000000B      0x08000216   Section        0  libshutdown2.o(.ARM.Collect$$libshutdown$$0000000B)
    .ARM.Collect$$libshutdown$$0000000E      0x08000216   Section        0  libshutdown2.o(.ARM.Collect$$libshutdown$$0000000E)
    .ARM.Collect$$libshutdown$$0000000F      0x08000216   Section        2  libshutdown2.o(.ARM.Collect$$libshutdown$$0000000F)
    .ARM.Collect$$rtentry$$00000000          0x08000218   Section        0  __rtentry.o(.ARM.Collect$$rtentry$$00000000)
    .ARM.Collect$$rtentry$$00000002          0x08000218   Section        0  __rtentry2.o(.ARM.Collect$$rtentry$$00000002)
    .ARM.Collect$$rtentry$$00000004          0x08000218   Section        6  __rtentry4.o(.ARM.Collect$$rtentry$$00000004)
    .ARM.Collect$$rtentry$$00000009          0x0800021e   Section        0  __rtentry2.o(.ARM.Collect$$rtentry$$00000009)
    .ARM.Collect$$rtentry$$0000000A          0x0800021e   Section        4  __rtentry2.o(.ARM.Collect$$rtentry$$0000000A)
    .ARM.Collect$$rtentry$$0000000C          0x08000222   Section        0  __rtentry2.o(.ARM.Collect$$rtentry$$0000000C)
    .ARM.Collect$$rtentry$$0000000D          0x08000222   Section        8  __rtentry2.o(.ARM.Collect$$rtentry$$0000000D)
    .ARM.Collect$$rtexit$$00000000           0x0800022a   Section        2  rtexit.o(.ARM.Collect$$rtexit$$00000000)
    .ARM.Collect$$rtexit$$00000002           0x0800022c   Section        0  rtexit2.o(.ARM.Collect$$rtexit$$00000002)
    .ARM.Collect$$rtexit$$00000003           0x0800022c   Section        4  rtexit2.o(.ARM.Collect$$rtexit$$00000003)
    .ARM.Collect$$rtexit$$00000004           0x08000230   Section        6  rtexit2.o(.ARM.Collect$$rtexit$$00000004)
    .text                                    0x08000238   Section       64  startup_stm32f40_41xxx.o(.text)
    $v0                                      0x08000238   Number         0  startup_stm32f40_41xxx.o(.text)
    .text                                    0x08000278   Section        2  use_no_semi_2.o(.text)
    .text                                    0x0800027c   Section        0  __2printf.o(.text)
    .text                                    0x08000294   Section        0  _printf_str.o(.text)
    .text                                    0x080002e8   Section        0  _printf_dec.o(.text)
    .text                                    0x08000360   Section        0  __printf_flags_ss_wp.o(.text)
    .text                                    0x080004e8   Section        0  strlen.o(.text)
    .text                                    0x08000526   Section        0  strncmp.o(.text)
    .text                                    0x080005bc   Section       78  rt_memclr_w.o(.text)
    .text                                    0x0800060c   Section      128  strcmpv7m.o(.text)
    .text                                    0x0800068c   Section        0  heapauxi.o(.text)
    .text                                    0x08000692   Section        2  use_no_semi.o(.text)
    .text                                    0x08000694   Section        0  _printf_intcommon.o(.text)
    .text                                    0x08000748   Section        0  _printf_char_common.o(.text)
    _printf_input_char                       0x08000749   Thumb Code    10  _printf_char_common.o(.text)
    .text                                    0x08000778   Section        0  _printf_char.o(.text)
    .text                                    0x080007a4   Section        0  _printf_char_file.o(.text)
    .text                                    0x080007c8   Section        0  ferror.o(.text)
    .text                                    0x080007d0   Section       74  sys_stackheap_outer.o(.text)
    .text                                    0x0800081a   Section        0  exit.o(.text)
    .text                                    0x08000828   Section        8  libspace.o(.text)
    i.BusFault_Handler                       0x08000830   Section        0  stm32f4xx_it.o(i.BusFault_Handler)
    i.DebugMon_Handler                       0x08000834   Section        0  stm32f4xx_it.o(i.DebugMon_Handler)
    i.GPIO_Init                              0x08000836   Section        0  stm32f4xx_gpio.o(i.GPIO_Init)
    i.GPIO_PinAFConfig                       0x080008c6   Section        0  stm32f4xx_gpio.o(i.GPIO_PinAFConfig)
    i.GPIO_SetBits                           0x0800090c   Section        0  stm32f4xx_gpio.o(i.GPIO_SetBits)
    i.HardFault_Handler                      0x08000910   Section        0  stm32f4xx_it.o(i.HardFault_Handler)
    i.LED_Init                               0x08000914   Section        0  led.o(i.LED_Init)
    i.MemManage_Handler                      0x08000954   Section        0  stm32f4xx_it.o(i.MemManage_Handler)
    i.NMI_Handler                            0x08000958   Section        0  stm32f4xx_it.o(i.NMI_Handler)
    i.NVIC_Init                              0x0800095c   Section        0  misc.o(i.NVIC_Init)
    i.NVIC_PriorityGroupConfig               0x080009d4   Section        0  misc.o(i.NVIC_PriorityGroupConfig)
    i.PendSV_Handler                         0x080009e8   Section        0  stm32f4xx_it.o(i.PendSV_Handler)
    i.RCC_AHB1PeriphClockCmd                 0x080009ec   Section        0  stm32f4xx_rcc.o(i.RCC_AHB1PeriphClockCmd)
    i.RCC_APB2PeriphClockCmd                 0x08000a0c   Section        0  stm32f4xx_rcc.o(i.RCC_APB2PeriphClockCmd)
    i.RCC_GetClocksFreq                      0x08000a2c   Section        0  stm32f4xx_rcc.o(i.RCC_GetClocksFreq)
    i.SVC_Handler                            0x08000b14   Section        0  stm32f4xx_it.o(i.SVC_Handler)
    i.SetSysClock                            0x08000b18   Section        0  system_stm32f4xx.o(i.SetSysClock)
    SetSysClock                              0x08000b19   Thumb Code   220  system_stm32f4xx.o(i.SetSysClock)
    i.SysTick_CLKSourceConfig                0x08000c04   Section        0  misc.o(i.SysTick_CLKSourceConfig)
    i.SysTick_Handler                        0x08000c2c   Section        0  stm32f4xx_it.o(i.SysTick_Handler)
    i.SystemInit                             0x08000c30   Section        0  system_stm32f4xx.o(i.SystemInit)
    i.USART1_IRQHandler                      0x08000c98   Section        0  usart.o(i.USART1_IRQHandler)
    i.USART1_driver_read                     0x08000cc8   Section        0  usart.o(i.USART1_driver_read)
    i.USART1_driver_write                    0x08000d24   Section        0  usart.o(i.USART1_driver_write)
    i.USART_Cmd                              0x08000d5c   Section        0  stm32f4xx_usart.o(i.USART_Cmd)
    i.USART_GetFlagStatus                    0x08000d74   Section        0  stm32f4xx_usart.o(i.USART_GetFlagStatus)
    i.USART_GetITStatus                      0x08000d8e   Section        0  stm32f4xx_usart.o(i.USART_GetITStatus)
    i.USART_ITConfig                         0x08000de2   Section        0  stm32f4xx_usart.o(i.USART_ITConfig)
    i.USART_Init                             0x08000e2c   Section        0  stm32f4xx_usart.o(i.USART_Init)
    i.USART_ReceiveData                      0x08000f00   Section        0  stm32f4xx_usart.o(i.USART_ReceiveData)
    i.USART_SendData                         0x08000f0a   Section        0  stm32f4xx_usart.o(i.USART_SendData)
    i.UsageFault_Handler                     0x08000f12   Section        0  stm32f4xx_it.o(i.UsageFault_Handler)
    i.User_Shell_Init                        0x08000f18   Section        0  shell_port.o(i.User_Shell_Init)
    i._is_digit                              0x08000f44   Section        0  __printf_wp.o(i._is_digit)
    i._sys_exit                              0x08000f52   Section        0  usart.o(i._sys_exit)
    i.delay_init                             0x08000f58   Section        0  delay.o(i.delay_init)
    i.delay_ms                               0x08000f94   Section        0  delay.o(i.delay_ms)
    i.delay_xms                              0x08000fcc   Section        0  delay.o(i.delay_xms)
    i.fifo_buffer_get_size                   0x08001018   Section        0  npec_fifo.o(i.fifo_buffer_get_size)
    i.fifo_buffer_init                       0x0800103a   Section        0  npec_fifo.o(i.fifo_buffer_init)
    i.fifo_buffer_pop                        0x08001046   Section        0  npec_fifo.o(i.fifo_buffer_pop)
    i.fifo_buffer_push                       0x0800106e   Section        0  npec_fifo.o(i.fifo_buffer_push)
    i.fifo_buffer_shift                      0x080010a8   Section        0  npec_fifo.o(i.fifo_buffer_shift)
    i.fputc                                  0x080010bc   Section        0  usart.o(i.fputc)
    i.func                                   0x080010d8   Section        0  shell_port.o(i.func)
    i.led                                    0x08001130   Section        0  shell_port.o(i.led)
    i.main                                   0x08001180   Section        0  main.o(i.main)
    i.shellAdd                               0x080011ac   Section        0  shell.o(i.shellAdd)
    shellAdd                                 0x080011ad   Thumb Code    34  shell.o(i.shellAdd)
    i.shellBackspace                         0x080011d4   Section        0  shell.o(i.shellBackspace)
    i.shellCheckPassword                     0x080011e4   Section        0  shell.o(i.shellCheckPassword)
    shellCheckPassword                       0x080011e5   Thumb Code    62  shell.o(i.shellCheckPassword)
    i.shellCheckPermission                   0x08001228   Section        0  shell.o(i.shellCheckPermission)
    i.shellClear                             0x08001260   Section        0  shell.o(i.shellClear)
    i.shellClearCommandLine                  0x0800127c   Section        0  shell.o(i.shellClearCommandLine)
    i.shellCmds                              0x080012a4   Section        0  shell.o(i.shellCmds)
    i.shellDelete                            0x080012b6   Section        0  shell.o(i.shellDelete)
    i.shellDeleteByte                        0x080012c6   Section        0  shell.o(i.shellDeleteByte)
    i.shellDeleteCommandLine                 0x080013a0   Section        0  shell.o(i.shellDeleteCommandLine)
    i.shellDown                              0x080013c0   Section        0  shell.o(i.shellDown)
    i.shellEnter                             0x080013d0   Section        0  shell.o(i.shellEnter)
    i.shellExec                              0x080013e4   Section        0  shell.o(i.shellExec)
    i.shellExtNumType                        0x08001458   Section        0  shell_ext.o(i.shellExtNumType)
    shellExtNumType                          0x08001459   Thumb Code    88  shell_ext.o(i.shellExtNumType)
    i.shellExtParseChar                      0x080014b0   Section        0  shell_ext.o(i.shellExtParseChar)
    shellExtParseChar                        0x080014b1   Thumb Code    70  shell_ext.o(i.shellExtParseChar)
    i.shellExtParseNumber                    0x080014f8   Section        0  shell_ext.o(i.shellExtParseNumber)
    shellExtParseNumber                      0x080014f9   Thumb Code   232  shell_ext.o(i.shellExtParseNumber)
    i.shellExtParsePara                      0x080015e4   Section        0  shell_ext.o(i.shellExtParsePara)
    i.shellExtParseString                    0x0800163a   Section        0  shell_ext.o(i.shellExtParseString)
    shellExtParseString                      0x0800163b   Thumb Code    74  shell_ext.o(i.shellExtParseString)
    i.shellExtParseVar                       0x08001684   Section        0  shell_ext.o(i.shellExtParseVar)
    shellExtParseVar                         0x08001685   Thumb Code    36  shell_ext.o(i.shellExtParseVar)
    i.shellExtRun                            0x080016a8   Section        0  shell_ext.o(i.shellExtRun)
    i.shellExtToNum                          0x08001772   Section        0  shell_ext.o(i.shellExtToNum)
    shellExtToNum                            0x08001773   Thumb Code    54  shell_ext.o(i.shellExtToNum)
    i.shellGetCommandDesc                    0x080017a8   Section        0  shell.o(i.shellGetCommandDesc)
    shellGetCommandDesc                      0x080017a9   Thumb Code    48  shell.o(i.shellGetCommandDesc)
    i.shellGetCommandName                    0x080017d8   Section        0  shell.o(i.shellGetCommandName)
    shellGetCommandName                      0x080017d9   Thumb Code    76  shell.o(i.shellGetCommandName)
    i.shellGetCurrent                        0x08001828   Section        0  shell.o(i.shellGetCurrent)
    i.shellGetVarValue                       0x0800185c   Section        0  shell.o(i.shellGetVarValue)
    i.shellHandler                           0x080018b0   Section        0  shell.o(i.shellHandler)
    i.shellHelp                              0x0800199c   Section        0  shell.o(i.shellHelp)
    i.shellHistory                           0x080019c8   Section        0  shell.o(i.shellHistory)
    shellHistory                             0x080019c9   Thumb Code   194  shell.o(i.shellHistory)
    i.shellHistoryAdd                        0x08001a8a   Section        0  shell.o(i.shellHistoryAdd)
    shellHistoryAdd                          0x08001a8b   Thumb Code   122  shell.o(i.shellHistoryAdd)
    i.shellInit                              0x08001b04   Section        0  shell.o(i.shellInit)
    i.shellInsertByte                        0x08001ba4   Section        0  shell.o(i.shellInsertByte)
    i.shellKeys                              0x08001c7c   Section        0  shell.o(i.shellKeys)
    i.shellLeft                              0x08001c8e   Section        0  shell.o(i.shellLeft)
    i.shellListAll                           0x08001ca8   Section        0  shell.o(i.shellListAll)
    i.shellListCommand                       0x08001cb4   Section        0  shell.o(i.shellListCommand)
    i.shellListItem                          0x08001d00   Section        0  shell.o(i.shellListItem)
    i.shellListKey                           0x08001dfc   Section        0  shell.o(i.shellListKey)
    i.shellListUser                          0x08001e54   Section        0  shell.o(i.shellListUser)
    i.shellListVar                           0x08001eac   Section        0  shell.o(i.shellListVar)
    i.shellNormalInput                       0x08001f04   Section        0  shell.o(i.shellNormalInput)
    i.shellParserParam                       0x08001f20   Section        0  shell.o(i.shellParserParam)
    shellParserParam                         0x08001f21   Thumb Code   142  shell.o(i.shellParserParam)
    i.shellRemoveParamQuotes                 0x08001fae   Section        0  shell.o(i.shellRemoveParamQuotes)
    shellRemoveParamQuotes                   0x08001faf   Thumb Code   104  shell.o(i.shellRemoveParamQuotes)
    i.shellRight                             0x08002016   Section        0  shell.o(i.shellRight)
    i.shellRunCommand                        0x08002034   Section        0  shell.o(i.shellRunCommand)
    i.shellSeekCommand                       0x080020e2   Section        0  shell.o(i.shellSeekCommand)
    i.shellSetUser                           0x0800215c   Section        0  shell.o(i.shellSetUser)
    shellSetUser                             0x0800215d   Thumb Code    86  shell.o(i.shellSetUser)
    i.shellSetVar                            0x080021b8   Section        0  shell.o(i.shellSetVar)
    i.shellSetVarValue                       0x08002228   Section        0  shell.o(i.shellSetVarValue)
    i.shellShowVar                           0x080022b8   Section        0  shell.o(i.shellShowVar)
    shellShowVar                             0x080022b9   Thumb Code   158  shell.o(i.shellShowVar)
    i.shellStringCompare                     0x08002378   Section        0  shell.o(i.shellStringCompare)
    shellStringCompare                       0x08002379   Thumb Code    44  shell.o(i.shellStringCompare)
    i.shellStringCopy                        0x080023a4   Section        0  shell.o(i.shellStringCopy)
    shellStringCopy                          0x080023a5   Thumb Code    24  shell.o(i.shellStringCopy)
    i.shellTab                               0x080023bc   Section        0  shell.o(i.shellTab)
    i.shellTask                              0x080024cc   Section        0  shell.o(i.shellTask)
    i.shellToDec                             0x080024ee   Section        0  shell.o(i.shellToDec)
    i.shellToHex                             0x08002544   Section        0  shell.o(i.shellToHex)
    i.shellUp                                0x0800257c   Section        0  shell.o(i.shellUp)
    i.shellUsers                             0x0800258a   Section        0  shell.o(i.shellUsers)
    i.shellVars                              0x0800259c   Section        0  shell.o(i.shellVars)
    i.shellWriteByte                         0x080025ae   Section        0  shell.o(i.shellWriteByte)
    shellWriteByte                           0x080025af   Thumb Code    14  shell.o(i.shellWriteByte)
    i.shellWriteCommandDesc                  0x080025bc   Section        0  shell.o(i.shellWriteCommandDesc)
    shellWriteCommandDesc                    0x080025bd   Thumb Code    88  shell.o(i.shellWriteCommandDesc)
    i.shellWriteCommandHelp                  0x08002618   Section        0  shell.o(i.shellWriteCommandHelp)
    shellWriteCommandHelp                    0x08002619   Thumb Code    98  shell.o(i.shellWriteCommandHelp)
    i.shellWritePrompt                       0x08002684   Section        0  shell.o(i.shellWritePrompt)
    shellWritePrompt                         0x08002685   Thumb Code    84  shell.o(i.shellWritePrompt)
    i.shellWriteReturnValue                  0x080026ec   Section        0  shell.o(i.shellWriteReturnValue)
    shellWriteReturnValue                    0x080026ed   Thumb Code   104  shell.o(i.shellWriteReturnValue)
    i.shellWriteString                       0x08002778   Section        0  shell.o(i.shellWriteString)
    i.uart_init                              0x080027a8   Section        0  usart.o(i.uart_init)
    i.userShellRead                          0x0800286c   Section        0  shell_port.o(i.userShellRead)
    i.userShellWrite                         0x08002880   Section        0  shell_port.o(i.userShellWrite)
    x$fpl$fpinit                             0x08002894   Section       10  fpinit.o(x$fpl$fpinit)
    $v0                                      0x08002894   Number         0  fpinit.o(x$fpl$fpinit)
    .constdata                               0x0800289e   Section      227  shell.o(.constdata)
    .constdata                               0x08002981   Section       19  shell_port.o(.constdata)
    .constdata                               0x08002994   Section       17  __printf_flags_ss_wp.o(.constdata)
    maptable                                 0x08002994   Data          17  __printf_flags_ss_wp.o(.constdata)
    .conststring                             0x080029a8   Section      677  shell.o(.conststring)
    shellCommand                             0x08002c70   Section      288  shell.o(shellCommand)
    __tagsym$$used                           0x08002c70   Number         0  shell.o(shellCommand)
    __tagsym$$used                           0x08002c80   Number         0  shell.o(shellCommand)
    __tagsym$$used                           0x08002c90   Number         0  shell.o(shellCommand)
    __tagsym$$used                           0x08002ca0   Number         0  shell.o(shellCommand)
    __tagsym$$used                           0x08002cb0   Number         0  shell.o(shellCommand)
    __tagsym$$used                           0x08002cc0   Number         0  shell.o(shellCommand)
    __tagsym$$used                           0x08002cd0   Number         0  shell.o(shellCommand)
    __tagsym$$used                           0x08002ce0   Number         0  shell.o(shellCommand)
    __tagsym$$used                           0x08002cf0   Number         0  shell.o(shellCommand)
    __tagsym$$used                           0x08002d00   Number         0  shell.o(shellCommand)
    __tagsym$$used                           0x08002d10   Number         0  shell.o(shellCommand)
    __tagsym$$used                           0x08002d20   Number         0  shell.o(shellCommand)
    __tagsym$$used                           0x08002d30   Number         0  shell.o(shellCommand)
    __tagsym$$used                           0x08002d40   Number         0  shell.o(shellCommand)
    __tagsym$$used                           0x08002d50   Number         0  shell.o(shellCommand)
    __tagsym$$used                           0x08002d60   Number         0  shell.o(shellCommand)
    __tagsym$$used                           0x08002d70   Number         0  shell.o(shellCommand)
    __tagsym$$used                           0x08002d80   Number         0  shell.o(shellCommand)
    shellCommand                             0x08002d90   Section       32  shell_port.o(shellCommand)
    __tagsym$$used                           0x08002d90   Number         0  shell_port.o(shellCommand)
    __tagsym$$used                           0x08002da0   Number         0  shell_port.o(shellCommand)
    .data                                    0x20000000   Section        4  delay.o(.data)
    fac_us                                   0x20000000   Data           1  delay.o(.data)
    fac_ms                                   0x20000002   Data           2  delay.o(.data)
    .data                                    0x20000004   Section        8  usart.o(.data)
    .data                                    0x2000000c   Section       16  stm32f4xx_rcc.o(.data)
    APBAHBPrescTable                         0x2000000c   Data          16  stm32f4xx_rcc.o(.data)
    .data                                    0x2000001c   Section       84  shell.o(.data)
    shellText                                0x2000001c   Data          84  shell.o(.data)
    .bss                                     0x20000070   Section      524  usart.o(.bss)
    .bss                                     0x2000027c   Section       29  shell.o(.bss)
    shellList                                0x2000027c   Data          20  shell.o(.bss)
    buffer                                   0x20000290   Data           9  shell.o(.bss)
    .bss                                     0x2000029c   Section      620  shell_port.o(.bss)
    .bss                                     0x20000508   Section       96  libspace.o(.bss)
    HEAP                                     0x20000568   Section      512  startup_stm32f40_41xxx.o(HEAP)
    Heap_Mem                                 0x20000568   Data         512  startup_stm32f40_41xxx.o(HEAP)
    STACK                                    0x20000768   Section     1024  startup_stm32f40_41xxx.o(STACK)
    Stack_Mem                                0x20000768   Data        1024  startup_stm32f40_41xxx.o(STACK)
    __initial_sp                             0x20000b68   Data           0  startup_stm32f40_41xxx.o(STACK)

    Global Symbols

    Symbol Name                              Value     Ov Type        Size  Object(Section)

    BuildAttributes$$THM_ISAv4$E$P$D$K$B$S$7EM$VFPi3$EXTD16$VFPS$VFMA$PE$A:L22UL41UL21$X:L11$S22US41US21$IEEE1$IW$USESV6$~STKCKD$USESV7$~SHL$OTIME$ROPI$IEEEJ$EBA8$UX$STANDARDLIB$REQ8$PRES8$EABIv2 0x00000000   Number         0  anon$$obj.o ABSOLUTE
    __ARM_use_no_argv                        0x00000000   Number         0  main.o ABSOLUTE
    _printf_flags                            0x00000000   Number         0  printf_stubs.o ABSOLUTE
    _printf_return_value                     0x00000000   Number         0  printf_stubs.o ABSOLUTE
    _printf_sizespec                         0x00000000   Number         0  printf_stubs.o ABSOLUTE
    _printf_widthprec                        0x00000000   Number         0  printf_stubs.o ABSOLUTE
    __ARM_exceptions_init                     - Undefined Weak Reference
    __alloca_initialize                       - Undefined Weak Reference
    __arm_preinit_                            - Undefined Weak Reference
    __cpp_initialize__aeabi_                  - Undefined Weak Reference
    __cxa_finalize                            - Undefined Weak Reference
    __sigvec_lookup                           - Undefined Weak Reference
    _atexit_init                              - Undefined Weak Reference
    _call_atexit_fns                          - Undefined Weak Reference
    _clock_init                               - Undefined Weak Reference
    _fp_trap_init                             - Undefined Weak Reference
    _fp_trap_shutdown                         - Undefined Weak Reference
    _get_lc_collate                           - Undefined Weak Reference
    _get_lc_monetary                          - Undefined Weak Reference
    _get_lc_time                              - Undefined Weak Reference
    _getenv_init                              - Undefined Weak Reference
    _handle_redirection                       - Undefined Weak Reference
    _init_alloc                               - Undefined Weak Reference
    _init_user_alloc                          - Undefined Weak Reference
    _initio                                   - Undefined Weak Reference
    _mutex_acquire                            - Undefined Weak Reference
    _mutex_release                            - Undefined Weak Reference
    _printf_mbtowc                            - Undefined Weak Reference
    _printf_wc                                - Undefined Weak Reference
    _rand_init                                - Undefined Weak Reference
    _signal_finish                            - Undefined Weak Reference
    _signal_init                              - Undefined Weak Reference
    _terminate_alloc                          - Undefined Weak Reference
    _terminate_user_alloc                     - Undefined Weak Reference
    _terminateio                              - Undefined Weak Reference
    __Vectors_Size                           0x00000188   Number         0  startup_stm32f40_41xxx.o ABSOLUTE
    __Vectors                                0x08000000   Data           4  startup_stm32f40_41xxx.o(RESET)
    __Vectors_End                            0x08000188   Data           0  startup_stm32f40_41xxx.o(RESET)
    __main                                   0x08000189   Thumb Code     8  __main.o(!!!main)
    __scatterload                            0x08000191   Thumb Code     0  __scatter.o(!!!scatter)
    __scatterload_rt2                        0x08000191   Thumb Code    44  __scatter.o(!!!scatter)
    __scatterload_rt2_thumb_only             0x08000191   Thumb Code     0  __scatter.o(!!!scatter)
    __scatterload_null                       0x0800019f   Thumb Code     0  __scatter.o(!!!scatter)
    __scatterload_copy                       0x080001c5   Thumb Code    26  __scatter_copy.o(!!handler_copy)
    __scatterload_zeroinit                   0x080001e1   Thumb Code    28  __scatter_zi.o(!!handler_zi)
    _printf_d                                0x080001fd   Thumb Code     0  _printf_d.o(.ARM.Collect$$_printf_percent$$00000009)
    _printf_percent                          0x080001fd   Thumb Code     0  _printf_percent.o(.ARM.Collect$$_printf_percent$$00000000)
    _printf_s                                0x08000203   Thumb Code     0  _printf_s.o(.ARM.Collect$$_printf_percent$$00000014)
    _printf_percent_end                      0x08000209   Thumb Code     0  _printf_percent_end.o(.ARM.Collect$$_printf_percent$$00000017)
    __rt_lib_init                            0x0800020d   Thumb Code     0  libinit.o(.ARM.Collect$$libinit$$00000000)
    __rt_lib_init_fp_1                       0x0800020f   Thumb Code     0  libinit2.o(.ARM.Collect$$libinit$$00000001)
    __rt_lib_init_alloca_1                   0x08000213   Thumb Code     0  libinit2.o(.ARM.Collect$$libinit$$0000002E)
    __rt_lib_init_argv_1                     0x08000213   Thumb Code     0  libinit2.o(.ARM.Collect$$libinit$$0000002C)
    __rt_lib_init_atexit_1                   0x08000213   Thumb Code     0  libinit2.o(.ARM.Collect$$libinit$$0000001B)
    __rt_lib_init_clock_1                    0x08000213   Thumb Code     0  libinit2.o(.ARM.Collect$$libinit$$00000021)
    __rt_lib_init_cpp_1                      0x08000213   Thumb Code     0  libinit2.o(.ARM.Collect$$libinit$$00000032)
    __rt_lib_init_exceptions_1               0x08000213   Thumb Code     0  libinit2.o(.ARM.Collect$$libinit$$00000030)
    __rt_lib_init_fp_trap_1                  0x08000213   Thumb Code     0  libinit2.o(.ARM.Collect$$libinit$$0000001F)
    __rt_lib_init_getenv_1                   0x08000213   Thumb Code     0  libinit2.o(.ARM.Collect$$libinit$$00000023)
    __rt_lib_init_heap_1                     0x08000213   Thumb Code     0  libinit2.o(.ARM.Collect$$libinit$$0000000A)
    __rt_lib_init_lc_collate_1               0x08000213   Thumb Code     0  libinit2.o(.ARM.Collect$$libinit$$00000011)
    __rt_lib_init_lc_ctype_1                 0x08000213   Thumb Code     0  libinit2.o(.ARM.Collect$$libinit$$00000013)
    __rt_lib_init_lc_monetary_1              0x08000213   Thumb Code     0  libinit2.o(.ARM.Collect$$libinit$$00000015)
    __rt_lib_init_lc_numeric_1               0x08000213   Thumb Code     0  libinit2.o(.ARM.Collect$$libinit$$00000017)
    __rt_lib_init_lc_time_1                  0x08000213   Thumb Code     0  libinit2.o(.ARM.Collect$$libinit$$00000019)
    __rt_lib_init_preinit_1                  0x08000213   Thumb Code     0  libinit2.o(.ARM.Collect$$libinit$$00000004)
    __rt_lib_init_rand_1                     0x08000213   Thumb Code     0  libinit2.o(.ARM.Collect$$libinit$$0000000E)
    __rt_lib_init_return                     0x08000213   Thumb Code     0  libinit2.o(.ARM.Collect$$libinit$$00000033)
    __rt_lib_init_signal_1                   0x08000213   Thumb Code     0  libinit2.o(.ARM.Collect$$libinit$$0000001D)
    __rt_lib_init_stdio_1                    0x08000213   Thumb Code     0  libinit2.o(.ARM.Collect$$libinit$$00000025)
    __rt_lib_init_user_alloc_1               0x08000213   Thumb Code     0  libinit2.o(.ARM.Collect$$libinit$$0000000C)
    __rt_lib_shutdown                        0x08000215   Thumb Code     0  libshutdown.o(.ARM.Collect$$libshutdown$$00000000)
    __rt_lib_shutdown_fp_trap_1              0x08000217   Thumb Code     0  libshutdown2.o(.ARM.Collect$$libshutdown$$00000006)
    __rt_lib_shutdown_heap_1                 0x08000217   Thumb Code     0  libshutdown2.o(.ARM.Collect$$libshutdown$$0000000E)
    __rt_lib_shutdown_return                 0x08000217   Thumb Code     0  libshutdown2.o(.ARM.Collect$$libshutdown$$0000000F)
    __rt_lib_shutdown_signal_1               0x08000217   Thumb Code     0  libshutdown2.o(.ARM.Collect$$libshutdown$$00000009)
    __rt_lib_shutdown_stdio_1                0x08000217   Thumb Code     0  libshutdown2.o(.ARM.Collect$$libshutdown$$00000003)
    __rt_lib_shutdown_user_alloc_1           0x08000217   Thumb Code     0  libshutdown2.o(.ARM.Collect$$libshutdown$$0000000B)
    __rt_entry                               0x08000219   Thumb Code     0  __rtentry.o(.ARM.Collect$$rtentry$$00000000)
    __rt_entry_presh_1                       0x08000219   Thumb Code     0  __rtentry2.o(.ARM.Collect$$rtentry$$00000002)
    __rt_entry_sh                            0x08000219   Thumb Code     0  __rtentry4.o(.ARM.Collect$$rtentry$$00000004)
    __rt_entry_li                            0x0800021f   Thumb Code     0  __rtentry2.o(.ARM.Collect$$rtentry$$0000000A)
    __rt_entry_postsh_1                      0x0800021f   Thumb Code     0  __rtentry2.o(.ARM.Collect$$rtentry$$00000009)
    __rt_entry_main                          0x08000223   Thumb Code     0  __rtentry2.o(.ARM.Collect$$rtentry$$0000000D)
    __rt_entry_postli_1                      0x08000223   Thumb Code     0  __rtentry2.o(.ARM.Collect$$rtentry$$0000000C)
    __rt_exit                                0x0800022b   Thumb Code     0  rtexit.o(.ARM.Collect$$rtexit$$00000000)
    __rt_exit_ls                             0x0800022d   Thumb Code     0  rtexit2.o(.ARM.Collect$$rtexit$$00000003)
    __rt_exit_prels_1                        0x0800022d   Thumb Code     0  rtexit2.o(.ARM.Collect$$rtexit$$00000002)
    __rt_exit_exit                           0x08000231   Thumb Code     0  rtexit2.o(.ARM.Collect$$rtexit$$00000004)
    Reset_Handler                            0x08000239   Thumb Code     8  startup_stm32f40_41xxx.o(.text)
    ADC_IRQHandler                           0x08000253   Thumb Code     0  startup_stm32f40_41xxx.o(.text)
    CAN1_RX0_IRQHandler                      0x08000253   Thumb Code     0  startup_stm32f40_41xxx.o(.text)
    CAN1_RX1_IRQHandler                      0x08000253   Thumb Code     0  startup_stm32f40_41xxx.o(.text)
    CAN1_SCE_IRQHandler                      0x08000253   Thumb Code     0  startup_stm32f40_41xxx.o(.text)
    CAN1_TX_IRQHandler                       0x08000253   Thumb Code     0  startup_stm32f40_41xxx.o(.text)
    CAN2_RX0_IRQHandler                      0x08000253   Thumb Code     0  startup_stm32f40_41xxx.o(.text)
    CAN2_RX1_IRQHandler                      0x08000253   Thumb Code     0  startup_stm32f40_41xxx.o(.text)
    CAN2_SCE_IRQHandler                      0x08000253   Thumb Code     0  startup_stm32f40_41xxx.o(.text)
    CAN2_TX_IRQHandler                       0x08000253   Thumb Code     0  startup_stm32f40_41xxx.o(.text)
    CRYP_IRQHandler                          0x08000253   Thumb Code     0  startup_stm32f40_41xxx.o(.text)
    DCMI_IRQHandler                          0x08000253   Thumb Code     0  startup_stm32f40_41xxx.o(.text)
    DMA1_Stream0_IRQHandler                  0x08000253   Thumb Code     0  startup_stm32f40_41xxx.o(.text)
    DMA1_Stream1_IRQHandler                  0x08000253   Thumb Code     0  startup_stm32f40_41xxx.o(.text)
    DMA1_Stream2_IRQHandler                  0x08000253   Thumb Code     0  startup_stm32f40_41xxx.o(.text)
    DMA1_Stream3_IRQHandler                  0x08000253   Thumb Code     0  startup_stm32f40_41xxx.o(.text)
    DMA1_Stream4_IRQHandler                  0x08000253   Thumb Code     0  startup_stm32f40_41xxx.o(.text)
    DMA1_Stream5_IRQHandler                  0x08000253   Thumb Code     0  startup_stm32f40_41xxx.o(.text)
    DMA1_Stream6_IRQHandler                  0x08000253   Thumb Code     0  startup_stm32f40_41xxx.o(.text)
    DMA1_Stream7_IRQHandler                  0x08000253   Thumb Code     0  startup_stm32f40_41xxx.o(.text)
    DMA2_Stream0_IRQHandler                  0x08000253   Thumb Code     0  startup_stm32f40_41xxx.o(.text)
    DMA2_Stream1_IRQHandler                  0x08000253   Thumb Code     0  startup_stm32f40_41xxx.o(.text)
    DMA2_Stream2_IRQHandler                  0x08000253   Thumb Code     0  startup_stm32f40_41xxx.o(.text)
    DMA2_Stream3_IRQHandler                  0x08000253   Thumb Code     0  startup_stm32f40_41xxx.o(.text)
    DMA2_Stream4_IRQHandler                  0x08000253   Thumb Code     0  startup_stm32f40_41xxx.o(.text)
    DMA2_Stream5_IRQHandler                  0x08000253   Thumb Code     0  startup_stm32f40_41xxx.o(.text)
    DMA2_Stream6_IRQHandler                  0x08000253   Thumb Code     0  startup_stm32f40_41xxx.o(.text)
    DMA2_Stream7_IRQHandler                  0x08000253   Thumb Code     0  startup_stm32f40_41xxx.o(.text)
    ETH_IRQHandler                           0x08000253   Thumb Code     0  startup_stm32f40_41xxx.o(.text)
    ETH_WKUP_IRQHandler                      0x08000253   Thumb Code     0  startup_stm32f40_41xxx.o(.text)
    EXTI0_IRQHandler                         0x08000253   Thumb Code     0  startup_stm32f40_41xxx.o(.text)
    EXTI15_10_IRQHandler                     0x08000253   Thumb Code     0  startup_stm32f40_41xxx.o(.text)
    EXTI1_IRQHandler                         0x08000253   Thumb Code     0  startup_stm32f40_41xxx.o(.text)
    EXTI2_IRQHandler                         0x08000253   Thumb Code     0  startup_stm32f40_41xxx.o(.text)
    EXTI3_IRQHandler                         0x08000253   Thumb Code     0  startup_stm32f40_41xxx.o(.text)
    EXTI4_IRQHandler                         0x08000253   Thumb Code     0  startup_stm32f40_41xxx.o(.text)
    EXTI9_5_IRQHandler                       0x08000253   Thumb Code     0  startup_stm32f40_41xxx.o(.text)
    FLASH_IRQHandler                         0x08000253   Thumb Code     0  startup_stm32f40_41xxx.o(.text)
    FPU_IRQHandler                           0x08000253   Thumb Code     0  startup_stm32f40_41xxx.o(.text)
    FSMC_IRQHandler                          0x08000253   Thumb Code     0  startup_stm32f40_41xxx.o(.text)
    HASH_RNG_IRQHandler                      0x08000253   Thumb Code     0  startup_stm32f40_41xxx.o(.text)
    I2C1_ER_IRQHandler                       0x08000253   Thumb Code     0  startup_stm32f40_41xxx.o(.text)
    I2C1_EV_IRQHandler                       0x08000253   Thumb Code     0  startup_stm32f40_41xxx.o(.text)
    I2C2_ER_IRQHandler                       0x08000253   Thumb Code     0  startup_stm32f40_41xxx.o(.text)
    I2C2_EV_IRQHandler                       0x08000253   Thumb Code     0  startup_stm32f40_41xxx.o(.text)
    I2C3_ER_IRQHandler                       0x08000253   Thumb Code     0  startup_stm32f40_41xxx.o(.text)
    I2C3_EV_IRQHandler                       0x08000253   Thumb Code     0  startup_stm32f40_41xxx.o(.text)
    OTG_FS_IRQHandler                        0x08000253   Thumb Code     0  startup_stm32f40_41xxx.o(.text)
    OTG_FS_WKUP_IRQHandler                   0x08000253   Thumb Code     0  startup_stm32f40_41xxx.o(.text)
    OTG_HS_EP1_IN_IRQHandler                 0x08000253   Thumb Code     0  startup_stm32f40_41xxx.o(.text)
    OTG_HS_EP1_OUT_IRQHandler                0x08000253   Thumb Code     0  startup_stm32f40_41xxx.o(.text)
    OTG_HS_IRQHandler                        0x08000253   Thumb Code     0  startup_stm32f40_41xxx.o(.text)
    OTG_HS_WKUP_IRQHandler                   0x08000253   Thumb Code     0  startup_stm32f40_41xxx.o(.text)
    PVD_IRQHandler                           0x08000253   Thumb Code     0  startup_stm32f40_41xxx.o(.text)
    RCC_IRQHandler                           0x08000253   Thumb Code     0  startup_stm32f40_41xxx.o(.text)
    RTC_Alarm_IRQHandler                     0x08000253   Thumb Code     0  startup_stm32f40_41xxx.o(.text)
    RTC_WKUP_IRQHandler                      0x08000253   Thumb Code     0  startup_stm32f40_41xxx.o(.text)
    SDIO_IRQHandler                          0x08000253   Thumb Code     0  startup_stm32f40_41xxx.o(.text)
    SPI1_IRQHandler                          0x08000253   Thumb Code     0  startup_stm32f40_41xxx.o(.text)
    SPI2_IRQHandler                          0x08000253   Thumb Code     0  startup_stm32f40_41xxx.o(.text)
    SPI3_IRQHandler                          0x08000253   Thumb Code     0  startup_stm32f40_41xxx.o(.text)
    TAMP_STAMP_IRQHandler                    0x08000253   Thumb Code     0  startup_stm32f40_41xxx.o(.text)
    TIM1_BRK_TIM9_IRQHandler                 0x08000253   Thumb Code     0  startup_stm32f40_41xxx.o(.text)
    TIM1_CC_IRQHandler                       0x08000253   Thumb Code     0  startup_stm32f40_41xxx.o(.text)
    TIM1_TRG_COM_TIM11_IRQHandler            0x08000253   Thumb Code     0  startup_stm32f40_41xxx.o(.text)
    TIM1_UP_TIM10_IRQHandler                 0x08000253   Thumb Code     0  startup_stm32f40_41xxx.o(.text)
    TIM2_IRQHandler                          0x08000253   Thumb Code     0  startup_stm32f40_41xxx.o(.text)
    TIM3_IRQHandler                          0x08000253   Thumb Code     0  startup_stm32f40_41xxx.o(.text)
    TIM4_IRQHandler                          0x08000253   Thumb Code     0  startup_stm32f40_41xxx.o(.text)
    TIM5_IRQHandler                          0x08000253   Thumb Code     0  startup_stm32f40_41xxx.o(.text)
    TIM6_DAC_IRQHandler                      0x08000253   Thumb Code     0  startup_stm32f40_41xxx.o(.text)
    TIM7_IRQHandler                          0x08000253   Thumb Code     0  startup_stm32f40_41xxx.o(.text)
    TIM8_BRK_TIM12_IRQHandler                0x08000253   Thumb Code     0  startup_stm32f40_41xxx.o(.text)
    TIM8_CC_IRQHandler                       0x08000253   Thumb Code     0  startup_stm32f40_41xxx.o(.text)
    TIM8_TRG_COM_TIM14_IRQHandler            0x08000253   Thumb Code     0  startup_stm32f40_41xxx.o(.text)
    TIM8_UP_TIM13_IRQHandler                 0x08000253   Thumb Code     0  startup_stm32f40_41xxx.o(.text)
    UART4_IRQHandler                         0x08000253   Thumb Code     0  startup_stm32f40_41xxx.o(.text)
    UART5_IRQHandler                         0x08000253   Thumb Code     0  startup_stm32f40_41xxx.o(.text)
    USART2_IRQHandler                        0x08000253   Thumb Code     0  startup_stm32f40_41xxx.o(.text)
    USART3_IRQHandler                        0x08000253   Thumb Code     0  startup_stm32f40_41xxx.o(.text)
    USART6_IRQHandler                        0x08000253   Thumb Code     0  startup_stm32f40_41xxx.o(.text)
    WWDG_IRQHandler                          0x08000253   Thumb Code     0  startup_stm32f40_41xxx.o(.text)
    __user_initial_stackheap                 0x08000255   Thumb Code     0  startup_stm32f40_41xxx.o(.text)
    __use_no_semihosting                     0x08000279   Thumb Code     2  use_no_semi_2.o(.text)
    __2printf                                0x0800027d   Thumb Code    20  __2printf.o(.text)
    _printf_str                              0x08000295   Thumb Code    82  _printf_str.o(.text)
    _printf_int_dec                          0x080002e9   Thumb Code   104  _printf_dec.o(.text)
    __printf                                 0x08000361   Thumb Code   388  __printf_flags_ss_wp.o(.text)
    strlen                                   0x080004e9   Thumb Code    62  strlen.o(.text)
    strncmp                                  0x08000527   Thumb Code   150  strncmp.o(.text)
    __aeabi_memclr4                          0x080005bd   Thumb Code     0  rt_memclr_w.o(.text)
    __aeabi_memclr8                          0x080005bd   Thumb Code     0  rt_memclr_w.o(.text)
    __rt_memclr_w                            0x080005bd   Thumb Code    78  rt_memclr_w.o(.text)
    _memset_w                                0x080005c1   Thumb Code     0  rt_memclr_w.o(.text)
    strcmp                                   0x0800060d   Thumb Code   128  strcmpv7m.o(.text)
    __use_two_region_memory                  0x0800068d   Thumb Code     2  heapauxi.o(.text)
    __rt_heap_escrow$2region                 0x0800068f   Thumb Code     2  heapauxi.o(.text)
    __rt_heap_expand$2region                 0x08000691   Thumb Code     2  heapauxi.o(.text)
    __I$use$semihosting                      0x08000693   Thumb Code     0  use_no_semi.o(.text)
    __use_no_semihosting_swi                 0x08000693   Thumb Code     2  use_no_semi.o(.text)
    _printf_int_common                       0x08000695   Thumb Code   178  _printf_intcommon.o(.text)
    _printf_char_common                      0x08000753   Thumb Code    32  _printf_char_common.o(.text)
    _printf_cs_common                        0x08000779   Thumb Code    20  _printf_char.o(.text)
    _printf_char                             0x0800078d   Thumb Code    16  _printf_char.o(.text)
    _printf_string                           0x0800079d   Thumb Code     8  _printf_char.o(.text)
    _printf_char_file                        0x080007a5   Thumb Code    32  _printf_char_file.o(.text)
    ferror                                   0x080007c9   Thumb Code     8  ferror.o(.text)
    __user_setup_stackheap                   0x080007d1   Thumb Code    74  sys_stackheap_outer.o(.text)
    exit                                     0x0800081b   Thumb Code    12  exit.o(.text)
    __user_libspace                          0x08000829   Thumb Code     8  libspace.o(.text)
    __user_perproc_libspace                  0x08000829   Thumb Code     0  libspace.o(.text)
    __user_perthread_libspace                0x08000829   Thumb Code     0  libspace.o(.text)
    BusFault_Handler                         0x08000831   Thumb Code     4  stm32f4xx_it.o(i.BusFault_Handler)
    DebugMon_Handler                         0x08000835   Thumb Code     2  stm32f4xx_it.o(i.DebugMon_Handler)
    GPIO_Init                                0x08000837   Thumb Code   144  stm32f4xx_gpio.o(i.GPIO_Init)
    GPIO_PinAFConfig                         0x080008c7   Thumb Code    70  stm32f4xx_gpio.o(i.GPIO_PinAFConfig)
    GPIO_SetBits                             0x0800090d   Thumb Code     4  stm32f4xx_gpio.o(i.GPIO_SetBits)
    HardFault_Handler                        0x08000911   Thumb Code     4  stm32f4xx_it.o(i.HardFault_Handler)
    LED_Init                                 0x08000915   Thumb Code    60  led.o(i.LED_Init)
    MemManage_Handler                        0x08000955   Thumb Code     4  stm32f4xx_it.o(i.MemManage_Handler)
    NMI_Handler                              0x08000959   Thumb Code     2  stm32f4xx_it.o(i.NMI_Handler)
    NVIC_Init                                0x0800095d   Thumb Code   106  misc.o(i.NVIC_Init)
    NVIC_PriorityGroupConfig                 0x080009d5   Thumb Code    10  misc.o(i.NVIC_PriorityGroupConfig)
    PendSV_Handler                           0x080009e9   Thumb Code     2  stm32f4xx_it.o(i.PendSV_Handler)
    RCC_AHB1PeriphClockCmd                   0x080009ed   Thumb Code    26  stm32f4xx_rcc.o(i.RCC_AHB1PeriphClockCmd)
    RCC_APB2PeriphClockCmd                   0x08000a0d   Thumb Code    26  stm32f4xx_rcc.o(i.RCC_APB2PeriphClockCmd)
    RCC_GetClocksFreq                        0x08000a2d   Thumb Code   214  stm32f4xx_rcc.o(i.RCC_GetClocksFreq)
    SVC_Handler                              0x08000b15   Thumb Code     2  stm32f4xx_it.o(i.SVC_Handler)
    SysTick_CLKSourceConfig                  0x08000c05   Thumb Code    40  misc.o(i.SysTick_CLKSourceConfig)
    SysTick_Handler                          0x08000c2d   Thumb Code     2  stm32f4xx_it.o(i.SysTick_Handler)
    SystemInit                               0x08000c31   Thumb Code    88  system_stm32f4xx.o(i.SystemInit)
    USART1_IRQHandler                        0x08000c99   Thumb Code    38  usart.o(i.USART1_IRQHandler)
    USART1_driver_read                       0x08000cc9   Thumb Code    88  usart.o(i.USART1_driver_read)
    USART1_driver_write                      0x08000d25   Thumb Code    52  usart.o(i.USART1_driver_write)
    USART_Cmd                                0x08000d5d   Thumb Code    24  stm32f4xx_usart.o(i.USART_Cmd)
    USART_GetFlagStatus                      0x08000d75   Thumb Code    26  stm32f4xx_usart.o(i.USART_GetFlagStatus)
    USART_GetITStatus                        0x08000d8f   Thumb Code    84  stm32f4xx_usart.o(i.USART_GetITStatus)
    USART_ITConfig                           0x08000de3   Thumb Code    74  stm32f4xx_usart.o(i.USART_ITConfig)
    USART_Init                               0x08000e2d   Thumb Code   204  stm32f4xx_usart.o(i.USART_Init)
    USART_ReceiveData                        0x08000f01   Thumb Code    10  stm32f4xx_usart.o(i.USART_ReceiveData)
    USART_SendData                           0x08000f0b   Thumb Code     8  stm32f4xx_usart.o(i.USART_SendData)
    UsageFault_Handler                       0x08000f13   Thumb Code     4  stm32f4xx_it.o(i.UsageFault_Handler)
    User_Shell_Init                          0x08000f19   Thumb Code    26  shell_port.o(i.User_Shell_Init)
    _is_digit                                0x08000f45   Thumb Code    14  __printf_wp.o(i._is_digit)
    _sys_exit                                0x08000f53   Thumb Code     4  usart.o(i._sys_exit)
    delay_init                               0x08000f59   Thumb Code    52  delay.o(i.delay_init)
    delay_ms                                 0x08000f95   Thumb Code    56  delay.o(i.delay_ms)
    delay_xms                                0x08000fcd   Thumb Code    72  delay.o(i.delay_xms)
    fifo_buffer_get_size                     0x08001019   Thumb Code    34  npec_fifo.o(i.fifo_buffer_get_size)
    fifo_buffer_init                         0x0800103b   Thumb Code    12  npec_fifo.o(i.fifo_buffer_init)
    fifo_buffer_pop                          0x08001047   Thumb Code    40  npec_fifo.o(i.fifo_buffer_pop)
    fifo_buffer_push                         0x0800106f   Thumb Code    58  npec_fifo.o(i.fifo_buffer_push)
    fifo_buffer_shift                        0x080010a9   Thumb Code    20  npec_fifo.o(i.fifo_buffer_shift)
    fputc                                    0x080010bd   Thumb Code    22  usart.o(i.fputc)
    func                                     0x080010d9   Thumb Code    42  shell_port.o(i.func)
    led                                      0x08001131   Thumb Code    50  shell_port.o(i.led)
    main                                     0x08001181   Thumb Code    40  main.o(i.main)
    shellBackspace                           0x080011d5   Thumb Code    14  shell.o(i.shellBackspace)
    shellCheckPermission                     0x08001229   Thumb Code    54  shell.o(i.shellCheckPermission)
    shellClear                               0x08001261   Thumb Code    22  shell.o(i.shellClear)
    shellClearCommandLine                    0x0800127d   Thumb Code    40  shell.o(i.shellClearCommandLine)
    shellCmds                                0x080012a5   Thumb Code    18  shell.o(i.shellCmds)
    shellDelete                              0x080012b7   Thumb Code    16  shell.o(i.shellDelete)
    shellDeleteByte                          0x080012c7   Thumb Code   218  shell.o(i.shellDeleteByte)
    shellDeleteCommandLine                   0x080013a1   Thumb Code    28  shell.o(i.shellDeleteCommandLine)
    shellDown                                0x080013c1   Thumb Code    16  shell.o(i.shellDown)
    shellEnter                               0x080013d1   Thumb Code    20  shell.o(i.shellEnter)
    shellExec                                0x080013e5   Thumb Code   108  shell.o(i.shellExec)
    shellExtParsePara                        0x080015e5   Thumb Code    86  shell_ext.o(i.shellExtParsePara)
    shellExtRun                              0x080016a9   Thumb Code   202  shell_ext.o(i.shellExtRun)
    shellGetCurrent                          0x08001829   Thumb Code    48  shell.o(i.shellGetCurrent)
    shellGetVarValue                         0x0800185d   Thumb Code    84  shell.o(i.shellGetVarValue)
    shellHandler                             0x080018b1   Thumb Code   232  shell.o(i.shellHandler)
    shellHelp                                0x0800199d   Thumb Code    44  shell.o(i.shellHelp)
    shellInit                                0x08001b05   Thumb Code   142  shell.o(i.shellInit)
    shellInsertByte                          0x08001ba5   Thumb Code   212  shell.o(i.shellInsertByte)
    shellKeys                                0x08001c7d   Thumb Code    18  shell.o(i.shellKeys)
    shellLeft                                0x08001c8f   Thumb Code    26  shell.o(i.shellLeft)
    shellListAll                             0x08001ca9   Thumb Code    12  shell.o(i.shellListAll)
    shellListCommand                         0x08001cb5   Thumb Code    70  shell.o(i.shellListCommand)
    shellListItem                            0x08001d01   Thumb Code   238  shell.o(i.shellListItem)
    shellListKey                             0x08001dfd   Thumb Code    84  shell.o(i.shellListKey)
    shellListUser                            0x08001e55   Thumb Code    84  shell.o(i.shellListUser)
    shellListVar                             0x08001ead   Thumb Code    84  shell.o(i.shellListVar)
    shellNormalInput                         0x08001f05   Thumb Code    28  shell.o(i.shellNormalInput)
    shellRight                               0x08002017   Thumb Code    30  shell.o(i.shellRight)
    shellRunCommand                          0x08002035   Thumb Code   174  shell.o(i.shellRunCommand)
    shellSeekCommand                         0x080020e3   Thumb Code   122  shell.o(i.shellSeekCommand)
    shellSetVar                              0x080021b9   Thumb Code   106  shell.o(i.shellSetVar)
    shellSetVarValue                         0x08002229   Thumb Code   140  shell.o(i.shellSetVarValue)
    shellTab                                 0x080023bd   Thumb Code   266  shell.o(i.shellTab)
    shellTask                                0x080024cd   Thumb Code    34  shell.o(i.shellTask)
    shellToDec                               0x080024ef   Thumb Code    86  shell.o(i.shellToDec)
    shellToHex                               0x08002545   Thumb Code    56  shell.o(i.shellToHex)
    shellUp                                  0x0800257d   Thumb Code    14  shell.o(i.shellUp)
    shellUsers                               0x0800258b   Thumb Code    18  shell.o(i.shellUsers)
    shellVars                                0x0800259d   Thumb Code    18  shell.o(i.shellVars)
    shellWriteString                         0x08002779   Thumb Code    48  shell.o(i.shellWriteString)
    uart_init                                0x080027a9   Thumb Code   178  usart.o(i.uart_init)
    userShellRead                            0x0800286d   Thumb Code    20  shell_port.o(i.userShellRead)
    userShellWrite                           0x08002881   Thumb Code    20  shell_port.o(i.userShellWrite)
    _fp_init                                 0x08002895   Thumb Code    10  fpinit.o(x$fpl$fpinit)
    __fplib_config_fpu_vfp                   0x0800289d   Thumb Code     0  fpinit.o(x$fpl$fpinit)
    __fplib_config_pureend_doubles           0x0800289d   Thumb Code     0  fpinit.o(x$fpl$fpinit)
    shellCmdDefaultUser                      0x0800289e   Data           7  shell.o(.constdata)
    shellPasswordDefaultUser                 0x080028a5   Data           1  shell.o(.constdata)
    shellDesDefaultUser                      0x080028a6   Data          13  shell.o(.constdata)
    shellCmdsetVar                           0x080028b3   Data           7  shell.o(.constdata)
    shellDescsetVar                          0x080028ba   Data           8  shell.o(.constdata)
    shellDesc0x1B5B4100                      0x080028c2   Data           3  shell.o(.constdata)
    shellDesc0x1B5B4200                      0x080028c5   Data           5  shell.o(.constdata)
    shellDesc0x1B5B4300                      0x080028ca   Data           6  shell.o(.constdata)
    shellDesc0x1B5B4400                      0x080028d0   Data           5  shell.o(.constdata)
    shellDesc0x09000000                      0x080028d5   Data           4  shell.o(.constdata)
    shellDesc0x08000000                      0x080028d9   Data          10  shell.o(.constdata)
    shellDesc0x7F000000                      0x080028e3   Data          10  shell.o(.constdata)
    shellDesc0x1B5B337E                      0x080028ed   Data           7  shell.o(.constdata)
    shellDesc0x0A000000                      0x080028f4   Data           6  shell.o(.constdata)
    shellDesc0x0D000000                      0x080028fa   Data           6  shell.o(.constdata)
    shellCmdhelp                             0x08002900   Data           5  shell.o(.constdata)
    shellDeschelp                            0x08002905   Data          30  shell.o(.constdata)
    shellCmdusers                            0x08002923   Data           6  shell.o(.constdata)
    shellDescusers                           0x08002929   Data          14  shell.o(.constdata)
    shellCmdcmds                             0x08002937   Data           5  shell.o(.constdata)
    shellDesccmds                            0x0800293c   Data          13  shell.o(.constdata)
    shellCmdvars                             0x08002949   Data           5  shell.o(.constdata)
    shellDescvars                            0x0800294e   Data          13  shell.o(.constdata)
    shellCmdkeys                             0x0800295b   Data           5  shell.o(.constdata)
    shellDesckeys                            0x08002960   Data          13  shell.o(.constdata)
    shellCmdclear                            0x0800296d   Data           6  shell.o(.constdata)
    shellDescclear                           0x08002973   Data          14  shell.o(.constdata)
    shellCmdfunc                             0x08002981   Data           5  shell_port.o(.constdata)
    shellDescfunc                            0x08002986   Data           5  shell_port.o(.constdata)
    shellCmdled                              0x0800298b   Data           4  shell_port.o(.constdata)
    shellDescled                             0x0800298f   Data           5  shell_port.o(.constdata)
    Region$$Table$$Base                      0x08002c50   Number         0  anon$$obj.o(Region$$Table)
    Region$$Table$$Limit                     0x08002c70   Number         0  anon$$obj.o(Region$$Table)
    shellCommand$$Base                       0x08002c70   Number         0  shell.o(shellCommand)
    shellUserDefault                         0x08002c70   Data          16  shell.o(shellCommand)
    shellCommandsetVar                       0x08002c80   Data          16  shell.o(shellCommand)
    shellKey0x1B5B4100                       0x08002c90   Data          16  shell.o(shellCommand)
    shellKey0x1B5B4200                       0x08002ca0   Data          16  shell.o(shellCommand)
    shellKey0x1B5B4300                       0x08002cb0   Data          16  shell.o(shellCommand)
    shellKey0x1B5B4400                       0x08002cc0   Data          16  shell.o(shellCommand)
    shellKey0x09000000                       0x08002cd0   Data          16  shell.o(shellCommand)
    shellKey0x08000000                       0x08002ce0   Data          16  shell.o(shellCommand)
    shellKey0x7F000000                       0x08002cf0   Data          16  shell.o(shellCommand)
    shellKey0x1B5B337E                       0x08002d00   Data          16  shell.o(shellCommand)
    shellKey0x0A000000                       0x08002d10   Data          16  shell.o(shellCommand)
    shellKey0x0D000000                       0x08002d20   Data          16  shell.o(shellCommand)
    shellCommandhelp                         0x08002d30   Data          16  shell.o(shellCommand)
    shellCommandusers                        0x08002d40   Data          16  shell.o(shellCommand)
    shellCommandcmds                         0x08002d50   Data          16  shell.o(shellCommand)
    shellCommandvars                         0x08002d60   Data          16  shell.o(shellCommand)
    shellCommandkeys                         0x08002d70   Data          16  shell.o(shellCommand)
    shellCommandclear                        0x08002d80   Data          16  shell.o(shellCommand)
    shellCommandfunc                         0x08002d90   Data          16  shell_port.o(shellCommand)
    shellCommandled                          0x08002da0   Data          16  shell_port.o(shellCommand)
    shellCommand$$Limit                      0x08002db0   Number         0  shell_port.o(shellCommand)
    p_usart1_fifo                            0x20000004   Data           4  usart.o(.data)
    __stdout                                 0x20000008   Data           4  usart.o(.data)
    m_usart1_fifo                            0x20000070   Data          12  usart.o(.bss)
    m_usart1_buf                             0x2000007c   Data         512  usart.o(.bss)
    shell                                    0x2000029c   Data         108  shell_port.o(.bss)
    shellBuffer                              0x20000308   Data         512  shell_port.o(.bss)
    __libspace_start                         0x20000508   Data          96  libspace.o(.bss)
    __temporary_stack_top$libspace           0x20000568   Data           0  libspace.o(.bss)



==============================================================================

Memory Map of the image

  Image Entry point : 0x08000189

  Load Region LR_IROM1 (Base: 0x08000000, Size: 0x00002e20, Max: 0x00100000, ABSOLUTE)

    Execution Region ER_IROM1 (Base: 0x08000000, Size: 0x00002db0, Max: 0x00100000, ABSOLUTE)

    Base Addr    Size         Type   Attr      Idx    E Section Name        Object

    0x08000000   0x00000188   Data   RO          533    RESET               startup_stm32f40_41xxx.o
    0x08000188   0x00000008   Code   RO         1771  * !!!main             c_w.l(__main.o)
    0x08000190   0x00000034   Code   RO         2066    !!!scatter          c_w.l(__scatter.o)
    0x080001c4   0x0000001a   Code   RO         2068    !!handler_copy      c_w.l(__scatter_copy.o)
    0x080001de   0x00000002   PAD
    0x080001e0   0x0000001c   Code   RO         2070    !!handler_zi        c_w.l(__scatter_zi.o)
    0x080001fc   0x00000000   Code   RO         1760    .ARM.Collect$$_printf_percent$$00000000  c_w.l(_printf_percent.o)
    0x080001fc   0x00000006   Code   RO         1759    .ARM.Collect$$_printf_percent$$00000009  c_w.l(_printf_d.o)
    0x08000202   0x00000006   Code   RO         1758    .ARM.Collect$$_printf_percent$$00000014  c_w.l(_printf_s.o)
    0x08000208   0x00000004   Code   RO         1837    .ARM.Collect$$_printf_percent$$00000017  c_w.l(_printf_percent_end.o)
    0x0800020c   0x00000002   Code   RO         1933    .ARM.Collect$$libinit$$00000000  c_w.l(libinit.o)
    0x0800020e   0x00000004   Code   RO         1947    .ARM.Collect$$libinit$$00000001  c_w.l(libinit2.o)
    0x08000212   0x00000000   Code   RO         1950    .ARM.Collect$$libinit$$00000004  c_w.l(libinit2.o)
    0x08000212   0x00000000   Code   RO         1953    .ARM.Collect$$libinit$$0000000A  c_w.l(libinit2.o)
    0x08000212   0x00000000   Code   RO         1955    .ARM.Collect$$libinit$$0000000C  c_w.l(libinit2.o)
    0x08000212   0x00000000   Code   RO         1957    .ARM.Collect$$libinit$$0000000E  c_w.l(libinit2.o)
    0x08000212   0x00000000   Code   RO         1960    .ARM.Collect$$libinit$$00000011  c_w.l(libinit2.o)
    0x08000212   0x00000000   Code   RO         1962    .ARM.Collect$$libinit$$00000013  c_w.l(libinit2.o)
    0x08000212   0x00000000   Code   RO         1964    .ARM.Collect$$libinit$$00000015  c_w.l(libinit2.o)
    0x08000212   0x00000000   Code   RO         1966    .ARM.Collect$$libinit$$00000017  c_w.l(libinit2.o)
    0x08000212   0x00000000   Code   RO         1968    .ARM.Collect$$libinit$$00000019  c_w.l(libinit2.o)
    0x08000212   0x00000000   Code   RO         1970    .ARM.Collect$$libinit$$0000001B  c_w.l(libinit2.o)
    0x08000212   0x00000000   Code   RO         1972    .ARM.Collect$$libinit$$0000001D  c_w.l(libinit2.o)
    0x08000212   0x00000000   Code   RO         1974    .ARM.Collect$$libinit$$0000001F  c_w.l(libinit2.o)
    0x08000212   0x00000000   Code   RO         1976    .ARM.Collect$$libinit$$00000021  c_w.l(libinit2.o)
    0x08000212   0x00000000   Code   RO         1978    .ARM.Collect$$libinit$$00000023  c_w.l(libinit2.o)
    0x08000212   0x00000000   Code   RO         1980    .ARM.Collect$$libinit$$00000025  c_w.l(libinit2.o)
    0x08000212   0x00000000   Code   RO         1984    .ARM.Collect$$libinit$$0000002C  c_w.l(libinit2.o)
    0x08000212   0x00000000   Code   RO         1986    .ARM.Collect$$libinit$$0000002E  c_w.l(libinit2.o)
    0x08000212   0x00000000   Code   RO         1988    .ARM.Collect$$libinit$$00000030  c_w.l(libinit2.o)
    0x08000212   0x00000000   Code   RO         1990    .ARM.Collect$$libinit$$00000032  c_w.l(libinit2.o)
    0x08000212   0x00000002   Code   RO         1991    .ARM.Collect$$libinit$$00000033  c_w.l(libinit2.o)
    0x08000214   0x00000002   Code   RO         2009    .ARM.Collect$$libshutdown$$00000000  c_w.l(libshutdown.o)
    0x08000216   0x00000000   Code   RO         2020    .ARM.Collect$$libshutdown$$00000003  c_w.l(libshutdown2.o)
    0x08000216   0x00000000   Code   RO         2023    .ARM.Collect$$libshutdown$$00000006  c_w.l(libshutdown2.o)
    0x08000216   0x00000000   Code   RO         2026    .ARM.Collect$$libshutdown$$00000009  c_w.l(libshutdown2.o)
    0x08000216   0x00000000   Code   RO         2028    .ARM.Collect$$libshutdown$$0000000B  c_w.l(libshutdown2.o)
    0x08000216   0x00000000   Code   RO         2031    .ARM.Collect$$libshutdown$$0000000E  c_w.l(libshutdown2.o)
    0x08000216   0x00000002   Code   RO         2032    .ARM.Collect$$libshutdown$$0000000F  c_w.l(libshutdown2.o)
    0x08000218   0x00000000   Code   RO         1775    .ARM.Collect$$rtentry$$00000000  c_w.l(__rtentry.o)
    0x08000218   0x00000000   Code   RO         1856    .ARM.Collect$$rtentry$$00000002  c_w.l(__rtentry2.o)
    0x08000218   0x00000006   Code   RO         1868    .ARM.Collect$$rtentry$$00000004  c_w.l(__rtentry4.o)
    0x0800021e   0x00000000   Code   RO         1858    .ARM.Collect$$rtentry$$00000009  c_w.l(__rtentry2.o)
    0x0800021e   0x00000004   Code   RO         1859    .ARM.Collect$$rtentry$$0000000A  c_w.l(__rtentry2.o)
    0x08000222   0x00000000   Code   RO         1861    .ARM.Collect$$rtentry$$0000000C  c_w.l(__rtentry2.o)
    0x08000222   0x00000008   Code   RO         1862    .ARM.Collect$$rtentry$$0000000D  c_w.l(__rtentry2.o)
    0x0800022a   0x00000002   Code   RO         1942    .ARM.Collect$$rtexit$$00000000  c_w.l(rtexit.o)
    0x0800022c   0x00000000   Code   RO         1993    .ARM.Collect$$rtexit$$00000002  c_w.l(rtexit2.o)
    0x0800022c   0x00000004   Code   RO         1994    .ARM.Collect$$rtexit$$00000003  c_w.l(rtexit2.o)
    0x08000230   0x00000006   Code   RO         1995    .ARM.Collect$$rtexit$$00000004  c_w.l(rtexit2.o)
    0x08000236   0x00000002   PAD
    0x08000238   0x00000040   Code   RO          534    .text               startup_stm32f40_41xxx.o
    0x08000278   0x00000002   Code   RO         1724    .text               c_w.l(use_no_semi_2.o)
    0x0800027a   0x00000002   PAD
    0x0800027c   0x00000018   Code   RO         1728    .text               c_w.l(__2printf.o)
    0x08000294   0x00000052   Code   RO         1734    .text               c_w.l(_printf_str.o)
    0x080002e6   0x00000002   PAD
    0x080002e8   0x00000078   Code   RO         1736    .text               c_w.l(_printf_dec.o)
    0x08000360   0x00000188   Code   RO         1755    .text               c_w.l(__printf_flags_ss_wp.o)
    0x080004e8   0x0000003e   Code   RO         1761    .text               c_w.l(strlen.o)
    0x08000526   0x00000096   Code   RO         1763    .text               c_w.l(strncmp.o)
    0x080005bc   0x0000004e   Code   RO         1765    .text               c_w.l(rt_memclr_w.o)
    0x0800060a   0x00000002   PAD
    0x0800060c   0x00000080   Code   RO         1767    .text               c_w.l(strcmpv7m.o)
    0x0800068c   0x00000006   Code   RO         1769    .text               c_w.l(heapauxi.o)
    0x08000692   0x00000002   Code   RO         1773    .text               c_w.l(use_no_semi.o)
    0x08000694   0x000000b2   Code   RO         1780    .text               c_w.l(_printf_intcommon.o)
    0x08000746   0x00000002   PAD
    0x08000748   0x00000030   Code   RO         1784    .text               c_w.l(_printf_char_common.o)
    0x08000778   0x0000002c   Code   RO         1790    .text               c_w.l(_printf_char.o)
    0x080007a4   0x00000024   Code   RO         1792    .text               c_w.l(_printf_char_file.o)
    0x080007c8   0x00000008   Code   RO         1881    .text               c_w.l(ferror.o)
    0x080007d0   0x0000004a   Code   RO         1887    .text               c_w.l(sys_stackheap_outer.o)
    0x0800081a   0x0000000c   Code   RO         1926    .text               c_w.l(exit.o)
    0x08000826   0x00000002   PAD
    0x08000828   0x00000008   Code   RO         1939    .text               c_w.l(libspace.o)
    0x08000830   0x00000004   Code   RO          166    i.BusFault_Handler  stm32f4xx_it.o
    0x08000834   0x00000002   Code   RO          167    i.DebugMon_Handler  stm32f4xx_it.o
    0x08000836   0x00000090   Code   RO          585    i.GPIO_Init         stm32f4xx_gpio.o
    0x080008c6   0x00000046   Code   RO          586    i.GPIO_PinAFConfig  stm32f4xx_gpio.o
    0x0800090c   0x00000004   Code   RO          593    i.GPIO_SetBits      stm32f4xx_gpio.o
    0x08000910   0x00000004   Code   RO          168    i.HardFault_Handler  stm32f4xx_it.o
    0x08000914   0x00000040   Code   RO          300    i.LED_Init          led.o
    0x08000954   0x00000004   Code   RO          169    i.MemManage_Handler  stm32f4xx_it.o
    0x08000958   0x00000002   Code   RO          170    i.NMI_Handler       stm32f4xx_it.o
    0x0800095a   0x00000002   PAD
    0x0800095c   0x00000078   Code   RO          540    i.NVIC_Init         misc.o
    0x080009d4   0x00000014   Code   RO          541    i.NVIC_PriorityGroupConfig  misc.o
    0x080009e8   0x00000002   Code   RO          171    i.PendSV_Handler    stm32f4xx_it.o
    0x080009ea   0x00000002   PAD
    0x080009ec   0x00000020   Code   RO          682    i.RCC_AHB1PeriphClockCmd  stm32f4xx_rcc.o
    0x08000a0c   0x00000020   Code   RO          694    i.RCC_APB2PeriphClockCmd  stm32f4xx_rcc.o
    0x08000a2c   0x000000e8   Code   RO          703    i.RCC_GetClocksFreq  stm32f4xx_rcc.o
    0x08000b14   0x00000002   Code   RO          172    i.SVC_Handler       stm32f4xx_it.o
    0x08000b16   0x00000002   PAD
    0x08000b18   0x000000ec   Code   RO          263    i.SetSysClock       system_stm32f4xx.o
    0x08000c04   0x00000028   Code   RO          544    i.SysTick_CLKSourceConfig  misc.o
    0x08000c2c   0x00000002   Code   RO          173    i.SysTick_Handler   stm32f4xx_it.o
    0x08000c2e   0x00000002   PAD
    0x08000c30   0x00000068   Code   RO          265    i.SystemInit        system_stm32f4xx.o
    0x08000c98   0x00000030   Code   RO          425    i.USART1_IRQHandler  usart.o
    0x08000cc8   0x0000005c   Code   RO          426    i.USART1_driver_read  usart.o
    0x08000d24   0x00000038   Code   RO          427    i.USART1_driver_write  usart.o
    0x08000d5c   0x00000018   Code   RO         1076    i.USART_Cmd         stm32f4xx_usart.o
    0x08000d74   0x0000001a   Code   RO         1079    i.USART_GetFlagStatus  stm32f4xx_usart.o
    0x08000d8e   0x00000054   Code   RO         1080    i.USART_GetITStatus  stm32f4xx_usart.o
    0x08000de2   0x0000004a   Code   RO         1082    i.USART_ITConfig    stm32f4xx_usart.o
    0x08000e2c   0x000000d4   Code   RO         1083    i.USART_Init        stm32f4xx_usart.o
    0x08000f00   0x0000000a   Code   RO         1090    i.USART_ReceiveData  stm32f4xx_usart.o
    0x08000f0a   0x00000008   Code   RO         1093    i.USART_SendData    stm32f4xx_usart.o
    0x08000f12   0x00000004   Code   RO          174    i.UsageFault_Handler  stm32f4xx_it.o
    0x08000f16   0x00000002   PAD
    0x08000f18   0x0000002c   Code   RO         1672    i.User_Shell_Init   shell_port.o
    0x08000f44   0x0000000e   Code   RO         1748    i._is_digit         c_w.l(__printf_wp.o)
    0x08000f52   0x00000004   Code   RO          428    i._sys_exit         usart.o
    0x08000f56   0x00000002   PAD
    0x08000f58   0x0000003c   Code   RO          367    i.delay_init        delay.o
    0x08000f94   0x00000038   Code   RO          368    i.delay_ms          delay.o
    0x08000fcc   0x0000004c   Code   RO          370    i.delay_xms         delay.o
    0x08001018   0x00000022   Code   RO          484    i.fifo_buffer_get_size  npec_fifo.o
    0x0800103a   0x0000000c   Code   RO          485    i.fifo_buffer_init  npec_fifo.o
    0x08001046   0x00000028   Code   RO          486    i.fifo_buffer_pop   npec_fifo.o
    0x0800106e   0x0000003a   Code   RO          487    i.fifo_buffer_push  npec_fifo.o
    0x080010a8   0x00000014   Code   RO          488    i.fifo_buffer_shift  npec_fifo.o
    0x080010bc   0x0000001c   Code   RO          429    i.fputc             usart.o
    0x080010d8   0x00000058   Code   RO         1673    i.func              shell_port.o
    0x08001130   0x00000050   Code   RO         1674    i.led               shell_port.o
    0x08001180   0x0000002c   Code   RO            3    i.main              main.o
    0x080011ac   0x00000028   Code   RO         1309    i.shellAdd          shell.o
    0x080011d4   0x0000000e   Code   RO         1310    i.shellBackspace    shell.o
    0x080011e2   0x00000002   PAD
    0x080011e4   0x00000044   Code   RO         1311    i.shellCheckPassword  shell.o
    0x08001228   0x00000036   Code   RO         1312    i.shellCheckPermission  shell.o
    0x0800125e   0x00000002   PAD
    0x08001260   0x0000001c   Code   RO         1313    i.shellClear        shell.o
    0x0800127c   0x00000028   Code   RO         1314    i.shellClearCommandLine  shell.o
    0x080012a4   0x00000012   Code   RO         1315    i.shellCmds         shell.o
    0x080012b6   0x00000010   Code   RO         1316    i.shellDelete       shell.o
    0x080012c6   0x000000da   Code   RO         1317    i.shellDeleteByte   shell.o
    0x080013a0   0x00000020   Code   RO         1318    i.shellDeleteCommandLine  shell.o
    0x080013c0   0x00000010   Code   RO         1319    i.shellDown         shell.o
    0x080013d0   0x00000014   Code   RO         1320    i.shellEnter        shell.o
    0x080013e4   0x00000074   Code   RO         1321    i.shellExec         shell.o
    0x08001458   0x00000058   Code   RO         1258    i.shellExtNumType   shell_ext.o
    0x080014b0   0x00000046   Code   RO         1259    i.shellExtParseChar  shell_ext.o
    0x080014f6   0x00000002   PAD
    0x080014f8   0x000000ec   Code   RO         1260    i.shellExtParseNumber  shell_ext.o
    0x080015e4   0x00000056   Code   RO         1261    i.shellExtParsePara  shell_ext.o
    0x0800163a   0x0000004a   Code   RO         1262    i.shellExtParseString  shell_ext.o
    0x08001684   0x00000024   Code   RO         1263    i.shellExtParseVar  shell_ext.o
    0x080016a8   0x000000ca   Code   RO         1264    i.shellExtRun       shell_ext.o
    0x08001772   0x00000036   Code   RO         1265    i.shellExtToNum     shell_ext.o
    0x080017a8   0x00000030   Code   RO         1322    i.shellGetCommandDesc  shell.o
    0x080017d8   0x00000050   Code   RO         1323    i.shellGetCommandName  shell.o
    0x08001828   0x00000034   Code   RO         1324    i.shellGetCurrent   shell.o
    0x0800185c   0x00000054   Code   RO         1325    i.shellGetVarValue  shell.o
    0x080018b0   0x000000ec   Code   RO         1326    i.shellHandler      shell.o
    0x0800199c   0x0000002c   Code   RO         1327    i.shellHelp         shell.o
    0x080019c8   0x000000c2   Code   RO         1328    i.shellHistory      shell.o
    0x08001a8a   0x0000007a   Code   RO         1329    i.shellHistoryAdd   shell.o
    0x08001b04   0x000000a0   Code   RO         1330    i.shellInit         shell.o
    0x08001ba4   0x000000d8   Code   RO         1331    i.shellInsertByte   shell.o
    0x08001c7c   0x00000012   Code   RO         1332    i.shellKeys         shell.o
    0x08001c8e   0x0000001a   Code   RO         1333    i.shellLeft         shell.o
    0x08001ca8   0x0000000c   Code   RO         1334    i.shellListAll      shell.o
    0x08001cb4   0x0000004c   Code   RO         1335    i.shellListCommand  shell.o
    0x08001d00   0x000000fc   Code   RO         1336    i.shellListItem     shell.o
    0x08001dfc   0x00000058   Code   RO         1337    i.shellListKey      shell.o
    0x08001e54   0x00000058   Code   RO         1338    i.shellListUser     shell.o
    0x08001eac   0x00000058   Code   RO         1339    i.shellListVar      shell.o
    0x08001f04   0x0000001c   Code   RO         1340    i.shellNormalInput  shell.o
    0x08001f20   0x0000008e   Code   RO         1341    i.shellParserParam  shell.o
    0x08001fae   0x00000068   Code   RO         1343    i.shellRemoveParamQuotes  shell.o
    0x08002016   0x0000001e   Code   RO         1344    i.shellRight        shell.o
    0x08002034   0x000000ae   Code   RO         1346    i.shellRunCommand   shell.o
    0x080020e2   0x0000007a   Code   RO         1347    i.shellSeekCommand  shell.o
    0x0800215c   0x0000005c   Code   RO         1348    i.shellSetUser      shell.o
    0x080021b8   0x00000070   Code   RO         1349    i.shellSetVar       shell.o
    0x08002228   0x00000090   Code   RO         1350    i.shellSetVarValue  shell.o
    0x080022b8   0x000000c0   Code   RO         1351    i.shellShowVar      shell.o
    0x08002378   0x0000002c   Code   RO         1352    i.shellStringCompare  shell.o
    0x080023a4   0x00000018   Code   RO         1353    i.shellStringCopy   shell.o
    0x080023bc   0x00000110   Code   RO         1354    i.shellTab          shell.o
    0x080024cc   0x00000022   Code   RO         1355    i.shellTask         shell.o
    0x080024ee   0x00000056   Code   RO         1356    i.shellToDec        shell.o
    0x08002544   0x00000038   Code   RO         1357    i.shellToHex        shell.o
    0x0800257c   0x0000000e   Code   RO         1358    i.shellUp           shell.o
    0x0800258a   0x00000012   Code   RO         1359    i.shellUsers        shell.o
    0x0800259c   0x00000012   Code   RO         1360    i.shellVars         shell.o
    0x080025ae   0x0000000e   Code   RO         1361    i.shellWriteByte    shell.o
    0x080025bc   0x0000005c   Code   RO         1362    i.shellWriteCommandDesc  shell.o
    0x08002618   0x0000006c   Code   RO         1363    i.shellWriteCommandHelp  shell.o
    0x08002684   0x00000068   Code   RO         1364    i.shellWritePrompt  shell.o
    0x080026ec   0x0000008c   Code   RO         1365    i.shellWriteReturnValue  shell.o
    0x08002778   0x00000030   Code   RO         1366    i.shellWriteString  shell.o
    0x080027a8   0x000000c4   Code   RO          430    i.uart_init         usart.o
    0x0800286c   0x00000014   Code   RO         1675    i.userShellRead     shell_port.o
    0x08002880   0x00000014   Code   RO         1676    i.userShellWrite    shell_port.o
    0x08002894   0x0000000a   Code   RO         2001    x$fpl$fpinit        fz_wm.l(fpinit.o)
    0x0800289e   0x000000e3   Data   RO         1368    .constdata          shell.o
    0x08002981   0x00000013   Data   RO         1678    .constdata          shell_port.o
    0x08002994   0x00000011   Data   RO         1756    .constdata          c_w.l(__printf_flags_ss_wp.o)
    0x080029a5   0x00000003   PAD
    0x080029a8   0x000002a5   Data   RO         1369    .conststring        shell.o
    0x08002c4d   0x00000003   PAD
    0x08002c50   0x00000020   Data   RO         2064    Region$$Table       anon$$obj.o
    0x08002c70   0x00000120   Data   RO         1371    shellCommand        shell.o
    0x08002d90   0x00000020   Data   RO         1679    shellCommand        shell_port.o


    Execution Region RW_IRAM1 (Base: 0x20000000, Size: 0x00000b68, Max: 0x00020000, ABSOLUTE)

    Base Addr    Size         Type   Attr      Idx    E Section Name        Object

    0x20000000   0x00000004   Data   RW          371    .data               delay.o
    0x20000004   0x00000008   Data   RW          432    .data               usart.o
    0x2000000c   0x00000010   Data   RW          735    .data               stm32f4xx_rcc.o
    0x2000001c   0x00000054   Data   RW         1370    .data               shell.o
    0x20000070   0x0000020c   Zero   RW          431    .bss                usart.o
    0x2000027c   0x0000001d   Zero   RW         1367    .bss                shell.o
    0x20000299   0x00000003   PAD
    0x2000029c   0x0000026c   Zero   RW         1677    .bss                shell_port.o
    0x20000508   0x00000060   Zero   RW         1940    .bss                c_w.l(libspace.o)
    0x20000568   0x00000200   Zero   RW          532    HEAP                startup_stm32f40_41xxx.o
    0x20000768   0x00000400   Zero   RW          531    STACK               startup_stm32f40_41xxx.o


==============================================================================

Image component sizes


      Code (inc. data)   RO Data    RW Data    ZI Data      Debug   Object Name

       192         12          0          4          0       1884   delay.o
        64          4          0          0          0        523   led.o
        44          4          0          0          0     267011   main.o
       180         24          0          0          0       2025   misc.o
       164          0          0          0          0       3419   npec_fifo.o
      4776        234       1192         84         29      40109   shell.o
       846         12          0          0          0       6634   shell_ext.o
       252         94         51          0        620       4089   shell_port.o
        64         26        392          0       1536        832   startup_stm32f40_41xxx.o
       218          0          0          0          0       2254   stm32f4xx_gpio.o
        26          0          0          0          0       3954   stm32f4xx_it.o
       296         30          0         16          0       3962   stm32f4xx_rcc.o
       438          8          0          0          0       5305   stm32f4xx_usart.o
       340         32          0          0          0       1437   system_stm32f4xx.o
       424         42          0          8        524       5702   usart.o

    ----------------------------------------------------------------------
      8342        522       1670        112       2712     349140   Object Totals
         0          0         32          0          0          0   (incl. Generated)
        18          0          3          0          3          0   (incl. Padding)

    ----------------------------------------------------------------------

      Code (inc. data)   RO Data    RW Data    ZI Data      Debug   Library Member Name

        24          4          0          0          0         84   __2printf.o
         8          0          0          0          0         68   __main.o
       392          4         17          0          0         92   __printf_flags_ss_wp.o
        14          0          0          0          0         68   __printf_wp.o
         0          0          0          0          0          0   __rtentry.o
        12          0          0          0          0          0   __rtentry2.o
         6          0          0          0          0          0   __rtentry4.o
        52          8          0          0          0          0   __scatter.o
        26          0          0          0          0          0   __scatter_copy.o
        28          0          0          0          0          0   __scatter_zi.o
        44          0          0          0          0        108   _printf_char.o
        48          6          0          0          0         96   _printf_char_common.o
        36          4          0          0          0         80   _printf_char_file.o
         6          0          0          0          0          0   _printf_d.o
       120         16          0          0          0         92   _printf_dec.o
       178          0          0          0          0         88   _printf_intcommon.o
         0          0          0          0          0          0   _printf_percent.o
         4          0          0          0          0          0   _printf_percent_end.o
         6          0          0          0          0          0   _printf_s.o
        82          0          0          0          0         80   _printf_str.o
        12          0          0          0          0         72   exit.o
         8          0          0          0          0         68   ferror.o
         6          0          0          0          0        152   heapauxi.o
         2          0          0          0          0          0   libinit.o
         6          0          0          0          0          0   libinit2.o
         2          0          0          0          0          0   libshutdown.o
         2          0          0          0          0          0   libshutdown2.o
         8          4          0          0         96         68   libspace.o
        78          0          0          0          0         80   rt_memclr_w.o
         2          0          0          0          0          0   rtexit.o
        10          0          0          0          0          0   rtexit2.o
       128          0          0          0          0         68   strcmpv7m.o
        62          0          0          0          0         76   strlen.o
       150          0          0          0          0         80   strncmp.o
        74          0          0          0          0         80   sys_stackheap_outer.o
         2          0          0          0          0         68   use_no_semi.o
         2          0          0          0          0         68   use_no_semi_2.o
        10          0          0          0          0        116   fpinit.o

    ----------------------------------------------------------------------
      1664         46         20          0         96       1852   Library Totals
        14          0          3          0          0          0   (incl. Padding)

    ----------------------------------------------------------------------

      Code (inc. data)   RO Data    RW Data    ZI Data      Debug   Library Name

      1640         46         17          0         96       1736   c_w.l
        10          0          0          0          0        116   fz_wm.l

    ----------------------------------------------------------------------
      1664         46         20          0         96       1852   Library Totals

    ----------------------------------------------------------------------

==============================================================================


      Code (inc. data)   RO Data    RW Data    ZI Data      Debug   

     10006        568       1690        112       2808     339508   Grand Totals
     10006        568       1690        112       2808     339508   ELF Image Totals
     10006        568       1690        112          0          0   ROM Totals

==============================================================================

    Total RO  Size (Code + RO Data)                11696 (  11.42kB)
    Total RW  Size (RW Data + ZI Data)              2920 (   2.85kB)
    Total ROM Size (Code + RO Data + RW Data)      11808 (  11.53kB)

==============================================================================

