:020000040800F2
:10000000680B00203902000859090008110900088E
:100010005509000831080008130F0008000000000F
:10002000000000000000000000000000150B0008A8
:100030003508000800000000E90900082D0C000840
:10004000530200085302000853020008530200083C
:10005000530200085302000853020008530200082C
:10006000530200085302000853020008530200081C
:10007000530200085302000853020008530200080C
:1000800053020008530200085302000853020008FC
:1000900053020008530200085302000853020008EC
:1000A00053020008530200085302000853020008DC
:1000B00053020008530200085302000853020008CC
:1000C00053020008530200085302000853020008BC
:1000D00053020008990C000853020008530200085C
:1000E000530200085302000853020008530200089C
:1000F000530200085302000853020008530200088C
:10010000530200085302000853020008530200087B
:10011000530200085302000853020008530200086B
:10012000530200085302000853020008530200085B
:10013000530200085302000853020008530200084B
:10014000530200085302000853020008530200083B
:10015000530200085302000853020008530200082B
:10016000530200085302000853020008530200081B
:10017000530200085302000853020008530200080B
:10018000530200085302000800F002F800F044F89F
:100190000AA090E8000C82448344AAF10107DA45E2
:1001A00001D100F039F8AFF2090EBAE80F0013F0F0
:1001B000010F18BFFB1A43F001031847942A0000EF
:1001C000B42A0000103A24BF78C878C1FAD8520780
:1001D00024BF30C830C144BF04680C6070470000C1
:1001E0000023002400250026103A28BF78C1FBD840
:1001F000520728BF30C148BF0B607047642900F028
:100200007380732900F0CA82002070471FB502F086
:1002100041FB1FBD10B510BD00F0DAFA1146FFF723
:10022000F5FF00F0ADFF00F0F8FA03B4FFF7F2FFBE
:1002300003BC00F08EFE00000948804709480047D3
:10024000FEE7FEE7FEE7FEE7FEE7FEE7FEE7FEE786
:10025000FEE7FEE704480549054A064B70470000E3
:10026000310C00088901000868050020680B002097
:100270006807002068070020704700000FB4044999
:1002800010B503AA029800F08DFA10BC5DF814FBBB
:100290000800002070B50C460546012A05D02878D4
:1002A000800600D5EA69002302E0012305E05B1C1B
:1002B000934202D2E05C0028F9D1A869E618C01A7E
:1002C000A861286A184428622846AFF3008004E039
:1002D000D5E9012114F8010B9047B442F8D3284620
:1002E000AFF3008070BD00002DE9F0410646002408
:1002F00010687529314616A510D0AFF3008000288C
:1003000002DA404213A507E031688A0701D512A539
:1003100002E0490704D511A5012401E0AFF30080F4
:1003200000210A2206F1240709E0B0FBF2FCB0FB31
:10033000F2F302FB1C00303078541846491C0028A8
:10034000F3D123462A463046BDE8F04100F0A2B979
:10035000000000002D0000002B0000002000000025
:100360002DE9F05F894604464FF0000ADFF874B1CA
:10037000FB44C0F820A02046E1688847002874D0DC
:10038000252806D0D4E901219047206A401C20622C
:10039000F1E700265F462046E168884720280546A9
:1003A00007DB312D05D2781910F8200C08B106436F
:1003B000F1E7B00701D526F00406C4F81CA0002719
:1003C000C4F818A02A2D09D0284600F0BBFD38B388
:1003D00004EB8708303DC8F8185019E059F8041BA1
:1003E000204604EB87029161E1688847012F0546AA
:1003F00018D1E069002820DA26F020061DE0D8F8A0
:10040000180000EB800005EB40003038C8F81800F9
:100410002046E1688847054600F094FD0028EED1AB
:10042000012F0AD02E2D08D12046E16888477F1C75
:100430000546022F46F02006C4DBA069002803DA37
:10044000404246F00106A061F00701D026F01006F8
:100450006C2D0BD0682D09D04C2D39D06A2D35D09C
:10046000742D35D07A2D33D016E038E0E1682F4670
:1004700020468847B842054609D16C2F26D04FF454
:100480008060E168064320468847054604E06C2FFB
:100490001AD04FF4807006430DB3A5F1410019281E
:1004A00002D8203546F400664A4629462046266092
:1004B0004E46FFF7A3FE80B101280BD0F61D26F0B3
:1004C000070000F1080956E74020E4E78020D8E75C
:1004D0000020D6E706F104094DE7284652E7206AD6
:1004E000BDE8F09F2026000010B5431C02E010F884
:1004F000011B71B18107FAD14FF0013202C88C1A89
:100500008C4314EAC211F9D0C01A0A0603D0C01EE7
:1005100010BDC01A10BD0A0401D0801E10BD090212
:10052000FCD0401E10BD40EA010370B59B072ED1E0
:100530004FF00136042A2AD308C810C99D1B9D43D9
:10054000121F15EAC61517D0D8B2E1B2401A50EA08
:10055000056110D198B2A1B2401A50EA05410AD102
:1005600023F07F4024F07F41401A50EA052102D158
:10057000180EA0EB146070BDA342DBD018BA21BAEC
:10058000884201D9012070BD4FF0FF3070BD0AB91B
:10059000002070BD10F8013B11F8014B63B1A3427C
:1005A0000AD1521E08D010F8013B11F8014B1BB1C3
:1005B000A34201D1521EEDD1181B70BD4FF00002B5
:1005C00000B5134694469646203922BFA0E80C5049
:1005D000A0E80C50B1F12001BFF4F7AF090728BF24
:1005E000A0E80C5048BF0CC05DF804EB890028BFA0
:1005F00040F8042B08BF704748BF20F8022B11F0C9
:10060000804F18BF00F8012B704700004FF0013CED
:1006100050F8042B51F8043B9A4221D1A2EB0C0371
:10062000934313EACC1317D150F8042B51F8043B31
:100630009A4215D1A2EB0C03934313EACC130BD1CE
:1006400050F8042B51F8043B9A4209D1A2EB0C0359
:10065000934313EACC13DBD04FF00000704700BF88
:10066000D01A01BAB1FA81F101F0180122FA01F0B1
:10067000CB40C1F12001DBB2C0B2C01A2CFA01F3A9
:10068000D11A914311EAC311E6D170477047704700
:10069000704770472DE9F0470D469946924604464B
:1006A00000F124080168880604D5E06921F01001F2
:1006B000216000E00120A84201DD471B00E0002787
:1006C000A1697A1902EB0900081AA0612078C00616
:1006D00002D42046AFF30080002608E0D4E90121CF
:1006E0001AF806009047206A401C761C20624E458E
:1006F000F4DB2078C0060AD52046AFF3008006E080
:10070000D4E9012130209047206A401C2062381E25
:10071000A7F10107F4DC07E0D4E9012118F805008E
:100720009047206A401C2062281EA5F10105F3DCD9
:100730002046AFF300802078000602D50220BDE8F5
:10074000F0870120FBE7000001694A1C026108787C
:10075000704700B58FB0CDE9013100210591054901
:100760007944CDE9031011466846FFF7F9FD0FB053
:1007700000BD0000E5FFFFFF10B5436913B1AFF303
:10078000008001E0FFF786FD012010BD127800F126
:1007900024010A7000224A700122EDE711684FF02F
:1007A000FF32E9E7074B70B50D467B44FFF7D1FFF9
:1007B0000446284600F008F810B14FF0FF3070BD35
:1007C000204670BD0F090000007B00F080007047DC
:1007D000754600F029F8AE4605006946534620F0FC
:1007E0000700854618B020B5FFF734FDBDE820406E
:1007F0004FF000064FF000074FF000084FF0000BDD
:1008000021F00701AC46ACE8C009ACE8C009ACE88F
:10081000C009ACE8C0098D4670470446AFF30080BC
:100820002046FFF702FD0000004870470805002041
:1008300000BFFEE77047F0B50A4600210023002400
:1008400000BF3DE0012505FA01F3156805EA030440
:100850009C4234D105684F000326BE40B543056075
:1008600015794E00B5400668354305601579012DB0
:1008700002D01579022D16D185684F000326BE409F
:10088000B543856055794E00B5408668354385602F
:10089000456801268E40B5434560456896798E408F
:1008A000B6B235434560C5684F000326BE40B54328
:1008B000C560D5794E00B540C6683543C560491C52
:1008C0001029BFD3F0BDF0B5002300244D07ED0E75
:1008D00002FA05F3CE1000F1200555F826504E0718
:1008E000F70E0F26BE40B543CF1000F1200646F8A4
:1008F0002750CE1000F1200555F8265045EA030494
:10090000CE1000F1200545F82640F0BD0183704768
:1009100000BFFEE71CB50121202000F067F84FF46E
:10092000C060009001208DF8040000208DF80600C2
:1009300003208DF8050001208DF807006946044862
:10094000FFF779FF4FF4C0610148FFF7DFFF1CBDDF
:100950000014024000BFFEE77047000070B50021A0
:1009600000230F22C4781CB3174C246804F4E064FD
:10097000C4F5E064C4F30721C1F10404E3B20A4101
:1009800044789C40E1B28478144021430C07210E46
:100990000E4C05786155047804F01F050124AC4025
:1009A00005786D11AD0005F1E025C5F8004109E0BD
:1009B000047804F01F050124AC40054D067876113B
:1009C00045F8264070BD00000CED00E000E400E0BA
:1009D00080E100E002490143024A116070470000D3
:1009E0000000FA050CED00E07047000029B1064A4E
:1009F00012680243044B1A6004E0034A12688243FF
:100A0000014B1A60704700003038024029B1064A95
:100A100012680243044B1A6004E0034A12688243DE
:100A2000014B1A607047000044380240F0B50021C5
:100A300000220024022500260223324F3F6807F0DF
:100A40000C0121B1042905D0082937D105E02E4F2A
:100A5000076036E02D4F076033E02A4F3F1F3F68A5
:100A6000C7F38056274F3F1F3F6807F03F036EB123
:100A7000264FB7FBF3F7DFF88CC0ACF1040CDCF8C1
:100A800000C0CCF3881C07FB0CF40CE01E4FB7FB36
:100A9000F3F7DFF870C0ACF1040CDCF800C0CCF365
:100AA000881C07FB0CF4174F3F1F3F68C7F3014733
:100AB0007F1C7D00B4FBF5F7076002E0124F076072
:100AC00000BF00BF0F4F3F6807F0F0010909104F4A
:100AD0007A5C0768D74047600A4F3F6807F4E051E7
:100AE000890A0B4F7A5C4768D7408760054F3F689B
:100AF00007F46041490B064F7A5C4768D740C760EE
:100B0000F0BD0000083802400024F40000127A0012
:100B10000C000020704700000CB5002001900090F0
:100B20003448006840F480303249086000BF3148E2
:100B3000006800F4003000900198401C019000987B
:100B400018B90198B0F5A04FF1D12A48006800F417
:100B5000003010B10120009001E0002000900098CA
:100B6000012846D123484030006840F08050214998
:100B7000403108602048006840F440401E49086049
:100B80001C48083000681B490831086008460068A6
:100B900040F4004008600846006840F4A050086037
:100BA0001648091F0860081F006840F08070091F80
:100BB000086000BF0F48006800F000700028F9D0FE
:100BC00040F205700E4908600A480830006820F0BD
:100BD00003000849083108600846006840F0020038
:100BE000086000BF03480830006800F00C000828C7
:100BF000F8D10CBD00380240007000400854400796
:100C0000003C0240042808D14FF0E021096941F07E
:100C100004014FF0E022116107E04FF0E021096983
:100C200021F004014FF0E02211617047704700008D
:100C300010B51548006840F4700013490860134867
:100C4000006840F001001149086000200F49083198
:100C500008600E4800680E4908400C4908600D48BD
:100C6000091D0860081F006820F48020091F086023
:100C7000002006490C310860FFF74EFF4FF000607E
:100C800001498039086010BD88ED00E0003802405D
:100C9000FFFFF6FE1030002408B540F22551084849
:100CA00000F075F850B1064800F02AF9C0B2009083
:100CB000012269460348006800F0D9F908BD000028
:100CC00000100140040000202DE9F04106460D46C9
:100CD000904600241248006800F09EF90446AC4299
:100CE00013DA27460FE00A2000F054F90C48006898
:100CF00000F092F90446BC4202D10020BDE8F08128
:100D0000AC4200DB00E0EEE700BFAC4200DD2C4669
:100D1000224631460248006800F095F92046EDE78A
:100D2000040000202DE9F04104460D461746002638
:100D30000DE000BF4021084800F01CF80028F9D061
:100D40002178054800F0E1F8641C701C86B2AE42C0
:100D5000EFDB2846BDE8F0810010014021B1828917
:100D600042F40052828104E082894DF6FF731A40FA
:100D70008281704702460020B1F5007F00D100BF9C
:100D800013880B400BB1012000E00020704770B5C4
:100D90000246002400230025002040F66A16B142D6
:100DA00000D100BFC1F3421501F01F03012606FA6E
:100DB00003F3012D02D19689334006E0022D02D1C2
:100DC000168A334001E0968A33400C12012606FA57
:100DD00004F41688344013B10CB1012000E0002067
:100DE00070BDF0B50346002400260025002040F623
:100DF0006A17B94200D100BF1846C1F3421401F08E
:100E00001F06012707FA06F5012C01D10C3004E07A
:100E1000022C01D1103000E014301AB107682F43C2
:100E2000076002E00768AF430760F0BD2DE9FF47A8
:100E300005460E460024A14600BFA046B08900B179
:100E400000BF2C8A24F44054F08804432C82AC89DF
:100E500041F20C608443B0883189084371890843AA
:100E60000443AC81AC8A24F44074B0890443AC825E
:100E70006846FFF7DBFD2048854202D01F488542C7
:100E800002D1DDF80C9001E0DDF80890A88900F4AB
:100E9000004040B109EBC90000EB0910316849007E
:100EA000B0FBF1F707E009EBC90000EB091031686E
:100EB0008900B0FBF1F76420B7FBF0F004012009D2
:100EC000642101FB1078A88900F4004040B1322071
:100ED00000EBC800B0FBF1F000F00700044308E0AD
:100EE000322000EB08106421B0FBF1F000F00F009D
:100EF00004432C81BDE8FF8700100140001401402D
:100F000001468888C0F308007047C1F30802828058
:100F1000704700BFFEE7000010B506480649886626
:100F2000064848664FF400720549034800F0EAFDA0
:100F300010BD0000812800089C0200206D280008D8
:100F40000803002030380A2801D201207047002011
:100F5000704700BF7047000010B504466FF00400F2
:100F6000FFF750FEE11704EB5171C1F3C701074AC7
:100F700011701046007800EB4001C1EBC0104FF635
:100F8000FF7101EAC0000249088010BD0000002086
:100F90000200002070B504464FF4077094FBF0F097
:100FA000C6B24FF4077094FBF0F100FB114085B21C
:100FB00005E04FF4077000F009F8701EC6B2002E6D
:100FC000F7D115B1284600F001F870BD0146114A6D
:100FD00012884A434FF0E0235A6100229A611A4670
:100FE000126942F001021A6100BF4FF0E02210695D
:100FF00000F001021AB100F48032002AF5D04FF05F
:10100000E022126922F001024FF0E0231A6100226F
:101010009A61704702000020014648880A88904281
:1010200004DB48880A88801A80B2704708884A889A
:10103000801A8A88101A80B2F7E7818082600023C4
:10104000438003807047F0B504460F4616460025DE
:101050000AE02188A068405C78552188204600F08D
:1010600023F82080681C85B2B542F2DBF0BDF0B5F4
:1010700004460E461746002513E0705D6288A1689D
:1010800088546188204600F00FF8608060882188CD
:10109000884204D12188204600F006F82080681C90
:1010A00085B2BD42E9DBF0BD02469388481C83420D
:1010B00001D100207047481C80B2FBE700BF054A01
:1010C000128802F04002002AF9D0C2B2014B9A8085
:1010D000704700000010014070B505460E462946D5
:1010E00008A0FFF7CBF8002407E056F8242021469B
:1010F00009A0FFF7C3F8601CC4B2AC42F5DB0020C6
:1011000070BD00002564706172616D657465722840
:1011100073290D0A00000000617267756D656E74B9
:10112000202564202D2D2D2025730D0A00000000A0
:1011300070B505460C46022D02D00AA0FFF79EF8B6
:1011400060680078302803D101200C49086006E06F
:1011500060680078312802D100200849086000202A
:1011600070BD0000496E70757420706172616D20F1
:101170006572726F72210D0A00000000A482424263
:101180004FF4A060FFF726FCA820FFF7E5FE4FF420
:10119000E13001F009FBFFF7BDFBFFF7BDFE02E008
:1011A000014801F093F9FBE79C0200200146002072
:1011B00009E0074A52F820201AB9054A42F82010DF
:1011C0007047421C10B20528F3DB00BFF8E70000AF
:1011D0007C02002010B504460121204600F073F87F
:1011E00010BD000010B50446226891682069FFF721
:1011F0000DFA60B994F8600020F00100401C84F8FA
:10120000600008480168204601F0B6FA04E005488D
:10121000416B204601F0B0FA0020A0810021E1815D
:1012200010BD00001C0000200246087848B1487834
:1012300000F00F00082804D0087813681B781840C5
:1012400050B192F8600000F0010018B94878C0F37E
:10125000001008B1002070474FF0FF30FBE700009E
:1012600010B500F0E1FA044624B10348816B204632
:1012700001F082FA10BD00001C00002070B5044689
:10128000A189E089081A05B205E02021204601F075
:101290008EF9681E05B2002DF7DC217B204600F098
:1012A0007FF870BD10B500F0BFFA044614B12046B7
:1012B00000F000FD10BD10B504464FF0FF31204690
:1012C00000F001F810BD2DE9F04104460D46681C00
:1012D00008B9012000E000200746E08908B9012D87
:1012E00005D0E089A189884203D1681C08B9BDE80E
:1012F000F081E089A189884210D1012D0ED1E089C9
:10130000401EE081A089401EA0810021A2892069A1
:1013100081540121204600F043F83FE038460AE0BE
:10132000E18901442269525CE1890144491E236933
:101330005A54411C08B2A289E189511A8142EFDC5A
:10134000A089401EA08137B9E089401EE0810821B4
:10135000204601F02CF90021A28920698154E089FE
:1013600006B206E02069815D204601F020F9701C7C
:1013700006B2A089B042F5DC2021204601F017F921
:10138000A189E089081A401C06B205E00821204620
:1013900001F00DF9701E06B2002EF7DC00BFA6E7C3
:1013A00070B505460C4603E004A1284601F0E4F9B7
:1013B0002000A4F10101CCB2F6D170BD08200800D4
:1013C00010B504464FF0FF31204600F0FDFA10BD85
:1013D00010B50446204600F005F80121204601F032
:1013E00051F910BD70B50446A08900B970BD002147
:1013F000A2892069815494F8600000F0010010B3C4
:10140000204600F042FB204600F08AFD0021E181E9
:10141000A181E08E00B9E9E70DA1204601F0ACF909
:1014200000232046A26D616900F05BFE054625B1F0
:101430002946204600F0FEFD04E00648816920466A
:1014400001F09AF902E02046FFF7CCFE00BFCDE79D
:101450000D0A00001C00002010B5024611460020B5
:101460000B78302B07D14B78782B02D04B78582B48
:1014700001D103200EE00B78302B07D14B78622B83
:1014800002D04B78422B01D1012003E00B78302BA6
:1014900000D1022006E00B782E2B03D14B780BB144
:1014A000042003E011F8014B002CF4D100BF10BD63
:1014B0000246511C00200B785C2B1AD14B786E2B06
:1014C0000ED004DC302B0FD0622B0FD104E0722B36
:1014D00004D0742B0AD105E0082009E00D2007E0B4
:1014E0000A2005E0092003E0002001E0487800BF61
:1014F00000E00878704700002DE9F84F05464FF0EE
:10150000000A4FF00A0B2C4600200090012600270D
:101510009FED330A10EE109A804628782D2800D1CE
:10152000B61E711C09B9012100E000214819FFF71E
:1015300093FF8246BAF1010F0FD0BAF1020F07D024
:10154000BAF1030F0ED14FF0100B022000900AE009
:101550004FF0080B0120009005E04FF0020B022035
:10156000009000E000BF00BF00982918701C08B967
:10157000012000E000200C1811E020782E2803D173
:101580004FF00108641C0AE0207800F0F2F807FB35
:101590000B0708EB88004FEA4008641C00BF207866
:1015A0000028EAD1BAF1040F17D1B8F1000F14D016
:1015B00000EE107AB8EE401A00EE108AB8EE400A3B
:1015C000C1EE000A00EE106AB8EEC00A20EE800AF2
:1015D00010EE109A4846BDE8F88F07FB06F0FAE7D0
:1015E0000000000070B505460C462078272805D17C
:1015F000607818B12046FFF75BFF70BD20782D287A
:1016000005D02078302806DB2078392803DC2046F6
:10161000FFF772FFF1E72078242806D1607820B127
:101620002146284600F02EF8E7E7207818B120463A
:1016300000F003F8E1E70020DFE770B50446254637
:1016400000262078222802D1601C0446054613E0BB
:1016500028785C2805D1681EFFF72AFFA0556D1C6D
:1016600007E02878222802D10020A05501E0287840
:10167000A0556D1C701C86B228780028E8D1A055B2
:10168000204670BD70B504460D460023691C2046F7
:10169000A26D00F026FD064626B13146204600F038
:1016A000DDF870BD0020FCE72DE9F0438BB08146EA
:1016B0000C4615461F46202103A8FEF77FFFA078A1
:1016C00000F00F01681E814203DDA07800F00F00DA
:1016D00000E0681E8046002609E0701C57F82010C4
:1016E0004846FFF77FFF03A941F82600761C681ED5
:1016F000B042F2DCB8F1080F38D2DFE808F0040994
:101700000D12171C232CA06880470BB0BDE8F08396
:101710000398A1688847F8E7DDE90301A2689047CC
:10172000F3E703A807C8A3689847EEE703A80FC824
:10173000A668B047E9E70798009003A80FC8A66815
:10174000B047E2E7DDE90701CDE9000103A80FC8D2
:10175000A668B047D9E7DDE907120998CDE900127C
:10176000029003A80FC8A668B047CEE74FF0FF303D
:10177000CBE70146302905DB392903DCA1F1300034
:10178000C0B27047612905DB662903DCA1F157006F
:10179000C0B2F6E7412905DB462903DCA1F1370099
:1017A000C0B2EEE70020ECE70146487800F00F00F9
:1017B000012801DCC8687047487800F00F0007284E
:1017C00001DCC868F7E7487800F00F00082801DC62
:1017D000C868F0E7C868EEE710B50446002004E0EA
:1017E0003021104A1154411CC8B20928F8DB607836
:1017F00000F00F00012801DC606810BD607800F087
:101800000F00072801DC6068F7E7607800F00F0040
:10181000082801DC6068F0E70249606800F092FE89
:101820000048EAE790020020002111E00A4850F841
:10183000210058B1084850F8210090F86000C0F32A
:10184000400018B1044850F821007047481C01B20C
:101850000529EBDB0020F8E77C02002070B5064686
:101860000C460025607800F00F00801E06281BD271
:10187000DFE800F003060A0D0E10A068056814E00A
:10188000A068B0F9005010E0A06805780DE000BF36
:10189000A5680AE0A068406818B1A26803CA884732
:1018A00000E00020054600E000BF00BF284670BDF4
:1018B0002DE9F04704468846B8F1000F01D1BDE894
:1018C000F08718274FF00009208F00F47F4018B1EF
:1018D00000276FF0FF090EE0A06B00F47F0018B145
:1018E0000827DFF8B49006E0A06B00F07F4010B14D
:1018F00010274FF07F49A66D00253DE006EB05104F
:10190000407800F00F00092834D106EB051120467D
:10191000FFF78AFC70BB06EB0510406800EA09007F
:10192000A16B884226D106EB05104068FF21B94023
:10193000084008FA07F188421CD108FA07F1A06BA9
:101940000843A0634FF0000847B106EB051040685C
:10195000A7F10801FF228A40104058B906EB051094
:10196000806820B106EB0510816820468847002179
:10197000A16305E0681C05B25C20005BA842BDDCE9
:1019800000BFB8F1000F05D00021A16341462046F9
:1019900000F0B8FA00BF92E70000FFFF70B5044600
:1019A0000D46FFF741FF064606B970BD012C03D175
:1019B000304600F079F905E0012C03DD3046696816
:1019C00000F02AFE00BFF0E770B504460D46002D7A
:1019D00025DDB4F954105420005B401E02B254209F
:1019E00002535020025B5220005B824202DD5020F5
:1019F000005B01E05220005B404281421DDC502030
:101A0000015B5220005B814202DD5020005B01E05F
:101A10005220005B404201B2542001530DE0002DE2
:101A20000ADA5420005B401C01B254200153002903
:101A300003DD0021015370BDFDE72046FFF71EFCCA
:101A40005420005B18B90021A181E1811BE05220E4
:101A5000005B401DB4F954100844052190FBF1F2DD
:101A600001FB120104F13C0050F82160314620696D
:101A700000F098FCA08100B9DDE7A189E181204652
:101A8000216900F079FE00BFD5E710B504460021BA
:101A9000542001535020005B002810DD5222125BBD
:101AA00021690AB9052201E05222125B521E04F19B
:101AB0003C0353F82200FEF7A9FD00B910BD5222E5
:101AC000135B04F13C0252F82300216900F06AFC28
:101AD00028B15220005B401C81B25220015350209B
:101AE000005B401C81B250200153052901DD052116
:101AF00001535220005B052802DB002152200153D4
:101B000000BFDBE72DE9F04104460D4616460020F4
:101B1000A0810021E181206094F8600020F00100A4
:101B2000401C84F860002561062096FBF0F0A0863A
:101B3000542001535020015352200153002009E04A
:101B4000A28E411C02FB015204F13C0141F820200D
:101B5000411C08B20528F3DB0E48A0650E480D496C
:101B6000401AC0F30F115C2001532046FFF71EFB03
:101B700000230AA12046A26D00F0B3FA07463946B9
:101B8000204600F0EBFA0121204600F07BFDBDE885
:101B9000F0810000702C0008B02D00086C65747492
:101BA0006572000070B504460D46A189A08E401EE6
:101BB00081420DDB30484168204600F0DDFD012107
:101BC000204600F05FFD2046216900F0D5FD70BD84
:101BD000E089A189884210D1A189481CA08120698F
:101BE00045540021A28920698154E089401CE0818C
:101BF0002946204600F0DBFC3CE0E089A1898842D0
:101C000038DAA289E189511A08B20AE0E18901446F
:101C1000491E2269525CE189014423695A54411EDC
:101C200008B20028F2DCE189481CE08120694554B3
:101C30000021A089401C80B22269A0811154E08952
:101C4000401E06B206E02069815D204600F0AFFC30
:101C5000701C06B2A089B042F5DCA189E089081A9F
:101C600006B205E00821204600F0A1FC701E06B275
:101C7000002EF7DC00BFAAE71C00002010B5FFF71C
:101C8000D3FD044614B1204600F0B8F810BD10B5DD
:101C90000446E089002806DD0821204600F087FC84
:101CA000E089401EE08110BD10B50446204600F0DA
:101CB00001F810BD70B50546AE6D10488168284624
:101CC00000F05AFD002413E006EB0410407800F009
:101CD0000F0001280ADC06EB04112846FFF7A4FADE
:101CE00020B906EB0411284600F00AF8601C04B283
:101CF0005C20405BA042E7DC70BD00001C000020BF
:101D00002DE9F04107460C462046FFF765FD0546E4
:101D10002946384600F030FDC0F1160006B2002E0C
:101D200001DD304600E00420064600BF2021384691
:101D300000F03DFC701E00B20600F7D1607800F0A4
:101D40000F00012805DC2A48016C384600F014FD1C
:101D500025E0607800F00F00072805DC2448416C7E
:101D6000384600F009FD1AE0607800F00F000828FE
:101D700005DC1F48816C384600F0FEFC0FE06078FF
:101D800000F00F00092805DC1948C16C384600F046
:101D9000F3FC04E01648016D384600F0EDFC15A197
:101DA000384600F0E9FC07250DE020780122AA4022
:101DB000104008B1782000E02D200146384600F0A0
:101DC000F6FB681E45B2002DEFDA0AA1384600F096
:101DD000D3FC2046FFF7E8FC05462946384600F0CC
:101DE000EDFB05A1384600F0C7FCBDE8F08100001E
:101DF0001C000020202000000D0A000070B50646DF
:101E0000B56D13484169304600F0B6FC00241AE075
:101E100005EB0410407800F00F00082811DD05EBF9
:101E20000410407800F00F0009280ADC05EB0411CB
:101E30003046FFF7F9F920B905EB04113046FFF7FA
:101E40005FFF601C04B25C20805BA042E0DC70BDE0
:101E50001C00002070B50646B56D13480169304678
:101E600000F08AFC00241AE005EB0410407800F032
:101E70000F00072811DD05EB0410407800F00F007B
:101E800008280ADC05EB04113046FFF7CDF920B92C
:101E900005EB04113046FFF733FF601C04B25C20F1
:101EA000805BA042E0DC70BD1C00002070B50646DF
:101EB000B56D1348C168304600F05EFC00241AE09E
:101EC00005EB0410407800F00F00012811DD05EB50
:101ED0000410407800F00F0007280ADC05EB04111D
:101EE0003046FFF7A1F920B905EB04113046FFF7A2
:101EF00007FF601C04B25C20805BA042E0DC70BD88
:101F00001C00002070B504460D4694F8600020F0D7
:101F1000040084F8600029462046FFF743FE70BDA8
:101F2000F0B500220123002106E0002500F1140491
:101F300044F821504C1C21B20829F6DB0024C48649
:101F4000002130E032B90469645C202C25D004699A
:101F5000645C14B30469645C222C04D10AB90124C2
:101F600000E000242246012B0CD1C48E082C08DA94
:101F700004696518C68E741CC48600F1140444F804
:101F8000265000230469645C5C2C0AD14C1C056952
:101F90002C5D34B14C1CA1B203E0002504696554EA
:101FA00001234C1CA1B284898C42CBDCF0BD70B5FE
:101FB000044600252BE004F1140050F825000078B9
:101FC00022280CD1002104F1140050F825000170E2
:101FD00004F1140050F82510491C40F8251004F1B4
:101FE000140151F82500FEF77FFA86B204F11400BF
:101FF00050F82510701E085C222806D1002104F13B
:10200000140050F82520701E1154681C85B2E08E13
:10201000A842D0DC70BD10B50446E089A189884291
:1020200007DAE289501CE0812069815C204600F0DB
:10203000BEFA10BD70B504460D46002694F8600047
:1020400020F00200801C84F86000687800F00F0027
:1020500088B92046FFF7ABFFE08E04F11401AA68AF
:10206000904706466878C0F3401040BB3146204692
:1020700000F03CFB2DE0687800F00F00012810D143
:10208000E28E04F1140329462046FFF70DFB0646B5
:102090006878C0F3401090B93146204600F026FB26
:1020A00017E0687800F00F00022809DB687800F07C
:1020B0000F00072804DC2946204600F0FDF808E060
:1020C000687800F00F00082803D12946204600F068
:1020D00045F894F8600020F0020084F86000304673
:1020E00070BD2DE9F0470646884614461F465C2021
:1020F000805BB16D611AA0EB11101FFA80F9002509
:1021000028E004EB0510407800F00F00092805D006
:1021100004EB05113046FFF787F800B118E004EB37
:102120000510FFF759FB824647B951464046FEF776
:102130006DFA60B904EB0510BDE8F0873A465146E8
:102140004046FEF7F0F910B904EB0510F4E700BFC4
:10215000681C85B24D45D4DB0020EDE770B5044620
:102160000D462560A86858B1A868FEF7BDF938B1DA
:10217000E08E022806DBA169A868FEF747FA08B9D5
:10218000012000E0002094F8601060F3000184F862
:1021900060100848816B204600F0EEFA94F8600069
:1021A00000F0010020B103480168204600F0E4FA85
:1021B00070BD00001C0000202DE9F04106460F46CE
:1021C000FFF732FB054615B90020BDE8F08100237A
:1021D00031462846AA6DFFF784FF044634B91148FA
:1021E000816A284600F0C8FA0020EEE7607800F027
:1021F0000F00022804DB607800F00F0007280ADDDA
:102200003146284600F0B8FA0648416A284600F0F0
:10221000B3FA0020D9E73A462146284600F004F8F0
:10222000D3E700001C00002070B506460C4615469A
:102230006078C0F3801028B11E48016A304600F073
:102240009BFA32E0607800F00F00801E06282AD248
:10225000DFE800F003060A0D1218A068056023E00D
:1022600029B2A06801801FE0A06805701CE0294623
:10227000A06800F097F817E00E48C169304600F0FA
:102280007BFA11E0A068806860B1A068006828B19E
:10229000A1688A6808682946904703E0A0688168B9
:1022A0002846884700E000BF00BF2146304600F0C6
:1022B00003F870BD1C000020FEB505460C4626A2A2
:1022C00007CA8DE8070021462846FFF7C7FA0746E8
:1022D0002846616800F050FA22A1284600F04CFA26
:1022E000607800F00F0005280CD11FA1284600F0EF
:1022F00043FA3946284600F03FFA1BA1284600F071
:102300003BFA21E06946384600F0F1F8C0F10B00D5
:10231000694646183146284600F02EFA13A1284691
:1023200000F02AFA002004E030210DF80010411CD2
:1023300008B20B28F8DB6946384600F003F9694615
:10234000284600F019FA00BF00BF0AA1284600F095
:1023500013FA3846FEBD00003030303030303030B7
:1023600030303000203D2000220000002C2030784A
:10237000000000000D0A000030B502460B460020A8
:10238000002108E0545C5D5CAC4200D008E0441CD5
:10239000A0B24C1CA1B2545C14B15C5C002CF1D115
:1023A00000BF30BD0246002003E00B5C1354431C09
:1023B00098B20B5C002BF8D1135470472DE9F84FFD
:1023C0000446B4F834A04FF000080025A08938B9BD
:1023D0002046FFF769FC0121204600F053F970E028
:1023E000A08900286DDD0021A28920698154A66D95
:1023F000002737E006EB07112046FEF715FF78BBF4
:1024000006EB0710FFF7E8F9834659462069FFF706
:10241000B3FFA189884223D1F5B1012D03D12AA1AF
:10242000204600F0A9F906EB08112046FFF768FCEA
:1024300006EB0710FFF7D0F9834606EB0810FFF70D
:10244000CBF959460090FFF797FF8146CA4501DD59
:10245000484600E0504682461FFA87F8681C85B25D
:10246000781C07B25C20005BB842C3DC0DB9BDE844
:10247000F88F012D02D12046FEF700FF4DB106EB8B
:102480000810FFF7A9F9074639462069FFF78AFFC8
:10249000A081012D0ADD06EB08112046FFF730FC74
:1024A0000121204600F0EEF8A4F80CA00021A2893A
:1024B00020698154A189E1812046216900F05CF9FD
:1024C00000BF00BFD3E700000D0A000038B5044686
:1024D0002546686E50B1012168466A6E9047012812
:1024E00004D19DF800102846FFF7E2F938BD30B559
:1024F00002460B241346002A00DA53420020C87219
:102500000DE00A2093FBF0F500FB15303030C5B22A
:10251000601EC0B204460D540A2093FBF0F3002B5A
:10252000EFD1002A04DA2D25601EC0B204460D54F6
:1025300022B93025601EC0B204460D54C4F10B0010
:1025400040B230BD30B502460B4608240020187258
:102550000EE002F00F01092902DD01F1570001E050
:1025600001F13000C5B2601EC0B204461D5412090C
:10257000002AEED1C4F1080040B230BD10B50446C7
:1025800001212046FFF720FA10BD10B5FFF74CF9E6
:10259000044614B12046FFF75DFC10BD10B5FFF7EF
:1025A00043F9044614B12046FFF780FC10BD13B573
:1025B0000446012101A8A26E90471CBD2DE9F041FF
:1025C00004460F4600253E46A06E10B90020BDE827
:1025D000F08102E0761C681C85B2307828B1307832
:1025E0000D2802D030780A28F4D1242D08DD2421CA
:1025F0003846A26E9047032106A0A26E904703E0E2
:1026000029463846A26E9047242D01DD2420DEE7BE
:102610002720DCE72E2E2E002DE9F04104460E4641
:10262000002331462046A26DFFF75BFD0546EDB164
:102630001248C16A204600F09FF82846FFF7CCF800
:1026400007463946204600F097F80DA1204600F0D5
:1026500093F82846FFF7A8F807463946204600F0C9
:102660008BF807A1204600F087F804E00348816951
:10267000204600F081F8BDE8F08100001C00002039
:102680000D0A000070B504460D4694F8600000F095
:102690000100D8B11DB110A1204600F06DF82068EE
:1026A0004168204600F068F80CA1204600F064F86C
:1026B000A06808B1A06800E009A00146204600F02B
:1026C0005BF808A1204600F057F804E00648016BCB
:1026D000204600F051F870BD0D0A00003A000000DD
:1026E0002F000000242000001C000020FEB505463D
:1026F0000C4618A2D2E900109268CDE901020091BF
:1027000017A1284600F038F869462046FFF7EFFE8B
:10271000C0F10B00694646183146284600F02CF8F7
:1027200012A1284600F028F8002004E030210DF81E
:102730000010411C08B20B28F8DB69462046FFF761
:1027400001FF6946284600F017F80AA1284600F064
:1027500013F8FEBD303030303030303030303000A3
:1027600052657475726E3A20000000002C2030789B
:10277000000000000D0A00002DE9F04104460D465E
:1027800000262F46A06E10B90020BDE8F08101E0C0
:10279000701C86B217F8011B0029F9D13146284672
:1027A000A26E904780B2F0E710B588B004460121D0
:1027B0000846FEF71BF901211020FEF727F9072232
:1027C00009212648FEF77FF807220A212348FEF751
:1027D0007AF84FF4C060069002208DF81C008DF846
:1027E0001D0000208DF81E0001208DF81F0006A995
:1027F0001A48FEF720F802940020ADF80C00ADF85E
:102800000E00ADF81000ADF814000C20ADF8120069
:1028100002A91348FEF70AFB01211148FEF79EFAB0
:10282000012240F225510E48FEF7DBFA25208DF8F3
:10283000040003208DF805008DF8060001208DF8B6
:10284000070001A8FEF78AF8064A4FF4007106480F
:102850000068FEF7F2FB08B010BD00000000024067
:10286000001001407C0000200400002070B50446E8
:102870000D46002229462046FEF726FA00B270BD1A
:1028800070B504460D46002229462046FEF74AFA56
:1028900000B270BD4FF04070E1EE100A70476C65F9
:1028A00074746572000064656661756C742075737C
:1028B0006572007365745661720073657420766189
:1028C0007200757000646F776E00726967687400DB
:1028D0006C65667400746162006261636B73706141
:1028E0006365006261636B73706163650064656C4E
:1028F00065746500656E74657200656E746572005E
:1029000068656C700073686F7720636F6D6D616EC2
:102910006420696E666F0D0A68656C70205B636D7C
:10292000645D007573657273006C69737420616C0B
:102930006C207573657200636D6473006C697374E9
:1029400020616C6C20636D640076617273006C6949
:10295000737420616C6C20766172006B6579730012
:102960006C69737420616C6C206B657900636C65B5
:10297000617200636C65617220636F6E736F6C656A
:102980000066756E630074657374006C6564007432
:1029900065737400040000080000000000000002DD
:1029A00000010000100000000D0A436F6D6D616EA4
:1029B00064204C6973743A0D0A0000000D0A5661D8
:1029C00072204C6973743A0D0A0000000D0A5573A9
:1029D0006572204C6973743A0D0A00000D0A4B654C
:1029E00079204C6973743A0D0A000000436F6D6DD5
:1029F000616E64206E6F7420466F756E640D0A0000
:102A00000D0A5761726E696E673A20436F6D6D6192
:102A10006E6420697320746F6F206C6F6E670D0A8F
:102A200000000000206973206E6F742061207661C1
:102A3000720D0A0063616E277420736574207265DD
:102A40006164206F6E6C79207661720D0A0000005F
:102A500063616E27742073657420706F696E74658E
:102A6000720D0A000D0A205F202020202020202047
:102A7000205F2020205F20202020202020202020D8
:102A800020202020202020205F2020202020202007
:102A90002020205F205F200D0A7C207C2020202029
:102AA0005F5F5F7C207C5F7C207C5F205F5F5F20BE
:102AB0005F205F5F2020205F5F5F7C207C5F5F2066
:102AC00020205F5F5F7C207C207C0D0A7C207C20A6
:102AD00020202F205F205C205F5F7C205F5F2F2005
:102AE0005F205C20275F5F7C202F205F5F7C20279A
:102AF0005F205C202F205F205C207C207C0D0A7CE6
:102B0000207C5F5F7C20205F5F2F207C5F7C207CAF
:102B10007C20205F5F2F207C202020205C5F5F20B6
:102B20005C207C207C207C20205F5F2F207C207C10
:102B30000D0A7C5F5F5F5F5F5C5F5F5F7C5C5F5F18
:102B40007C5C5F5F5C5F5F5F7C5F7C202020207C23
:102B50005F5F5F2F5F7C207C5F7C5C5F5F5F7C5F83
:102B60007C5F7C0D0A0D0A4275696C643A20202056
:102B7000202020204175672032342032303231202D
:102B800031363A31343A30310D0A56657273696F15
:102B90006E3A2020202020332E312E310D0A436F33
:102BA000707972696768743A20202028632920327E
:102BB000303230204C65747465720D0A00000000DC
:102BC0000D0A70617373776F7264206572726F7231
:102BD0000D0A0000566172206E6F7420466F756E8C
:102BE000740D0A001B5B324B0D000000434D442066
:102BF0000000000056415220000000004B455920C3
:102C000000000000636F6D6D616E642068656C701C
:102C1000206F6620000000000D0A506C656173652E
:102C200020696E7075742070617373776F72643A87
:102C3000000000004E4F4E45000000001B5B324A72
:102C40001B5B314800000000555345520000000056
:102C5000B02D00080000002070000000C401000832
:102C6000202E000870000020F80A0000E001000893
:102C7000000800009E280008A5280008A6280008D3
:102C800000210000B3280008B9210008BA28000874
:102C90000009000000415B1B7D250008C2280008D8
:102CA0000009000000425B1BC1130008C528000892
:102CB0000019000000435B1B17200008CA28000809
:102CC0000019000000445B1B8F1C0008D02800087E
:102CD0000009000000000009BD230008D5280008F5
:102CE0000019000000000008D5110008D9280008CC
:102CF000001900000000007FD5110008E32800083B
:102D0000001900007E335B1BB7120008ED28000895
:102D1000001900000000000AD1130008F428000880
:102D2000001900000000000DD1130008FA28000867
:102D300000200000002900089D190008052900084E
:102D400000210000232900088B25000829290008FC
:102D50000021000037290008A51200083C290008BE
:102D600000210000492900089D2500084E2900087F
:102D7000002100005B2900087D1C00086029000874
:102D8000002100006D290008611200087329000865
:102D90000000000081290008D910000886290008D9
:102DA000000000008B290008311100088F2900085D
:102DB0000000000070000020000000000000000083
:102DC000010203040102030406070809642A00083B
:102DD000002A0008A8290008BC290008CC290008FE
:102DE000DC290008EC290008502A0008342A0008D1
:102DF000242A0008D42B0008042C0008182C0008F2
:102E0000C02B00083C2C0008E42B0008EC2B000829
:102E1000F42B0008482C0008FC2B0008342C000878
:040000050800018965
:00000001FF
